:020000040040BA
:10000000880800203D0140003901400039014000CE
:100010003901400039014000390140000000000072
:100020000000000000000000000000003901400056
:100030003901400000000000390140003901400052
:1000400039014000390140003901400039014000C8
:100050003901400039014000390140000000000032
:100060003901400039014000000000003901400022
:100070003901400000000000390140003901400012
:10008000000000000000000039014000390140007C
:100090003901400039014000390140003901400078
:1000A000390140003901400000000000000000005C
:1000B00000000000390140003901400039014000D2
:1000C00039014000390140003901400010B5054CAC
:1000D000237833B9044B13B10448AFF300800123F4
:1000E000237010BD4404002000000000400F4000B9
:1000F0000C4B43B10C4810B50C49AFF300800C48D1
:10010000036823B910BD0A48036833B97047094B27
:10011000002BF7D0BDE810401847064B002BF5D058
:10012000184700BF00000000400F400048040020B6
:10013000400F400000000000FEE7000008B5184B2B
:10014000184A9A4210D0184B154A9A420CD2013BD9
:100150009B1A23F0030304331344124951F8040B90
:1001600042F8040B9A42F9D1104B114A9A420AD232
:10017000013B9B1A23F0030304331344002142F88C
:10018000041B9342FBD10B4B23F0604323F07F030E
:10019000094A9360094B9847094B9847FEE700BF0F
:1001A00000000020400F4000440400208404002090
:1001B000440400200000400000ED00E0DD044000A9
:1001C000B1034000034B4FF400621A614FF48052B8
:1001D0001A61704700040E4010B444112E4A2F4B90
:1001E000002C08BF1346424200F01F0002F01F021D
:1001F00058BF5042052915D8DFE801F0030B16243B
:1002000032401968012282401143196059690A433A
:100210005A611968012202FA00F0014319601A6953
:100220001043186110BC70475968012202FA00F0AF
:10023000014359601A6FC04302401A675A6F104059
:100240005867EFE75968012202FA00F0014359604C
:100250001A6F02431A675A6F22EA00005867E1E7F3
:100260005968012202FA00F0014359601A6F22EA2C
:1002700000021A675A6F10435867D3E75968012282
:1002800002FA00F0014359601A6F02431A675A6F6D
:1002900010435867C6E700BF000E0E4000100E4026
:1002A00010B444110D4A0E4B002C08BF13464242B5
:1002B00000F01F0002F01F0258BF504239B9596BBD
:1002C000012202FA00F00843586310BC7047196B12
:1002D000012202FA00F008431863F6E7000E0E4010
:1002E00000100E4070B506460D464FF480720D4B5F
:1002F0001A610D4B9847022109200C4CA04702219E
:100300000A20A0470A4B1A6842F040021A601A6895
:1003100042F010021A605A6866F34B225A601D625E
:1003200070BD00BF00040E40C5014000D90140006F
:1003300000060E40034A536913F0020FFBD0014B35
:10034000D861704700060E40044B5B6913F0010F43
:100350001ABF024B98690020C0B2704700060E40D9
:1003600038B50446007828B1034DA84714F8010FAA
:100370000028FAD138BD00BF3503400008B5044B52
:100380009847002814BF01204FF0FF3008BD00BF80
:10039000DD07400008B50449044B98470028CCBF4E
:1003A00001204FF0FF3008BD340D40007D034000B8
:1003B0002DE9F0478EB0394A536843F40043536047
:1003C00001211220364B984701211220354B9847C6
:1003D0000D210420344B98474FF00008334CDFF8D0
:1003E000F8903CE0202DA8BF0025636913F0010FB1
:1003F000FBD005F1010AB8470EAB1D4405F8200CEF
:10040000554606A8B047B0F1FF3FEBD0284906A8F3
:10041000284B9847002837D1274906A8254B9847ED
:10042000002836D1254A03AB07CA03C31A70CDF89A
:100430000490234B0293234E3068234DA8477068E5
:10044000A84703A8A847B068A847F068A84701A82C
:10045000A8473069A84702A8A8477069A84706AD11
:100460001A4E0FCE0FC5336825F8023B1B0C2B70BC
:10047000CDF82B80CDF82F80CDF833808DF83780E4
:100480004546134E134FBCE701211220054B9847F8
:10049000C2E741461220034B9847C3E750140E4071
:1004A000D9014000A1024000E502400000060E40D4
:1004B0003C0D40007D034000440D40004C0D4000C9
:1004C000333025000000002061034000140D40007F
:1004D00095034000490340003730660070B50F4E69
:1004E0000F4D761BB61018BF002405D0013455F807
:1004F000043B9847A642F9D10A4E0B4D00F00EFD81
:10050000761BB61018BF002406D0013455F8043B02
:100510009847A642F9D170BD70BD00BF280F4000BA
:10052000280F4000300F4000280F40002DE9F04117
:100530004FF0010E002574464FF0FF362B198B4209
:1005400000EB06070DD23F5D10F803C0BC452DD26D
:100550001D460124A3EB060E2B198B4200EB060768
:10056000F1D34FF00108002544464FF0FF37C2F8A1
:1005700000E02B19994200EB070E0ED91EF804E09B
:1005800010F803C0F44518D91D460124A3EB070851
:100590002B19994200EB070EF0D80137701C8742E7
:1005A00024BF3846C2F80080BDE8F0810CD04FF07F
:1005B000010E2E4674467544C0E70BD04FF001087B
:1005C0002F4644464544D4E7744512BF01341D46C6
:1005D0000124B3E7444512BF01341D460124C8E796
:1005E0002DE9F04FADF2144D164605468B461046E8
:1005F000194603AA1C46FFF799FF814603AB0DF28B
:100600000C4243F8044F9342FBD14CB1631E721E5F
:1006100004A812F8011F40F8213013F1FF33F8D27B
:1006200003994A463144304600F058FA00286FD109
:1006300009F1FF330093F318824601932346804665
:10064000544658469A4608EB0A073A1A00212844AD
:1006500000F0FEF9002856D1002F54D0EB1913F802
:10066000012C04AB53F822304BB124B1039A9342CE
:1006700001D2AAEB0203984400243846E3E74C4534
:10068000234638BF4B460AF1FF3E734513D208EBB1
:100690000302A85C16F803C02A44844506EB030154
:1006A00006D02CE011F801CF12F8010F844526D1B5
:1006B00001337345F6D34C45009980F08980009B47
:1006C00008EB0302019BA85C1B782A4498427FD167
:1006D000019804F1FF3B06E010F801CD12F801ED9E
:1006E000F44503D119464B1E9B45F5D101348C428C
:1006F00070D8039C3846A044AAEB0404A3E7C9F1D0
:1007000001029044B7E700200DF2144DBDE8F08FD0
:10071000A4EB09034B4538BF4B4609F1FF380133C1
:10072000039306EB080358464FF0000ACB46994660
:100730000AEB04073A1A0021284400F089F900283E
:10074000E1D1002FDFD0EB1913F8012C04AB53F8E3
:100750002230A3BB601E834515D20AEB0B0215F8AD
:1007600002E016F80B302A449E4506EB0B015B466F
:1007700006D027E011F801CF12F801EFF44521D19E
:1007800001338342F6D3B8F1FF3F11D00AEB0802E0
:10079000AB5C99F800102A4499420FD14B4605E012
:1007A00013F8010D12F8011D884207D1B342F7D1A9
:1007B00005EB0A000DF2144DBDE8F08F039B9A443F
:1007C0003846B5E7CBF1010292449A443846AFE788
:1007D00049468BE705EB080096E700BF0278002A40
:1007E00000F001812DE9F04F91F8008085B044467A
:1007F000B8F1000F16D0864601F1010C012704E084
:10080000634613F8014B64B19C46A24214BF002713
:1008100007F001071EF8012F002AF1D19CF80030E3
:10082000FBB917B105B0BDE8F08F0E46054641464D
:100830000130ACEB060400F081F9074688B1012CC9
:10084000F0D0281987428CBF0121C11B1F2C8B4679
:100850000BD9234632463846FFF7C2FE05B0BDE845
:10086000F08F002005B0BDE8F08F03AA2146304686
:10087000FFF75CFE0399804602463144304600F0A3
:100880002DF9002857D181460546B246584608F151
:10089000FF330093F31801936619321A002138448C
:1008A00000F0D6F80028DCD1002EDAD0C845434647
:1008B00038BF4B469C4212D95A19B95C1AF803004A
:1008C0003A4488420AEB030E06D02CE01EF8010FD2
:1008D00012F8011F884226D101339C42F6D1C84547
:1008E000009940F28380009BEA18019BB85C1B785A
:1008F0003A4498427AD1019809F1FF3B06E010F89A
:1009000001CD12F801EDF44503D119464B1E5B45AC
:10091000F5D109F10109894557D8039B30461D449B
:10092000A4EB0309B8E7C8F1010215441D444FF0D8
:1009300000093046B0E7A4EB0803434538BF4346FF
:1009400008F1FF390133039306EB090358460025EC
:10095000BB469A4667193A1A0021584400F078F8C5
:1009600000287FF47EAF002F3FF47BAF444515D9BC
:1009700008EB05021BF8020016F808305A449842AA
:1009800006EB0801434606D023E011F801EF12F808
:10099000010F86451DD101339C42F6D1B9F1FF3FCD
:1009A00012D005EB09021BF802109AF800305A44E5
:1009B000994214D1534605E013F8010D12F8011DB8
:1009C00088420CD1B342F7D15F46781905B0BDE833
:1009D000F08FC8F1010215441D443846BAE7039B65
:1009E00038461D44B6E70B7813B97047414690E787
:1009F00000207047024B13B1024800F005B8704761
:100A000000000000150A4000002301461A4618465F
:100A100000F008B938B50A4C0A4D641BA4100AD07E
:100A200004F18043013B05EB8305013C55F8043993
:100A30009847002CF9D1BDE8384000F079BA00BFE2
:100A4000400F40003C0F4000704700BF704700BFA0
:100A5000830770B4CDB23DD0541E0AB30378AB42C5
:100A60001FD0431C05E014F1FF3419D30278AA42C9
:100A700017D013F0030F184603F10103F3D1032C31
:100A800011D84CB30378AB420BD00444431C02E0B2
:100A90000278AA4205D09C42184603F10103F7D11F
:100AA000002070BC7047090289B2294341EA014124
:100AB000036806464B40A3F1013222EA030313F018
:100AC000803F00F1040003D1043C032CF0D8D8E7A8
:100AD0003046D7E71446D2E72046E2E7032A70B44F
:100AE00022D940EA01039B0711D003780C78A34276
:100AF0001DD10A44013105E010F8013F11F8014B06
:100B0000A34214D19142F7D1002070BC70470D6808
:100B100006680C46AE42034601F1040100F10400F0
:100B200008D1043A032AF2D8002ADED1ECE7181BD8
:100B300070BC704721461846D7E700BFC9B20029EC
:100B400041D08207F0B467D00378002B68D0994277
:100B500037D0431C04E013F8010B90B381422FD02F
:100B60009A071C46F7D1256841EA012343EA03436B
:100B700083EA0506A6F10130A5F1013220EA06005C
:100B800022EA0502024312F0803F11D1204650F8BC
:100B9000046F83EA0607A7F10135A6F1013225EAC1
:100BA000070522EA06022A4312F0803FEFD00446EE
:100BB000207818B905E014F8010F10B18142FAD17C
:100BC0002046F0BC7047830724D00378002BF9D06F
:100BD000431C03E002780133002AF3D0990718463A
:100BE000F8D11968A1F1013222EA010212F0803F26
:100BF00008D153F8041FA1F1013222EA010212F0D8
:100C0000803FF6D01A78184642B110F8013F002B09
:100C1000FBD170470346E4E70446A4E71846704753
:100C20001846CEE72DE9F8432C4D0646286898462D
:100C30000F469146FFF708FF294B1C68D4F848314E
:100C4000002B3ED05A681F2A1CDC02F1010E76B13F
:100C5000012103EB8204C4F88890D3F88801914005
:100C60000843022EC3F88801C4F8088123D0023259
:100C7000C3F804E0286843F82270FFF7E7FE00207D
:100C8000BDE8F883174B0BB34FF4C870AFF3008087
:100C90000346D8B10020D4F848114FF0010E586037
:100CA00019600246C4F84831C3F88801C3F88C01C2
:100CB000002EDCD0CCE7D3F88C010143C3F88C11B3
:100CC000D5E704F5A673C4F84831BBE72868FFF7F9
:100CD000BDFE4FF0FF30BDE8F88300BF40040020A8
:100CE000180F40000000000001000000020000009A
:100CF00004000000080000001000000020000000B8
:100D00004000000080000000000100000002000020
:100D1000000400002020202020202020202020204F
:100D20002020202020200000000000000000000003
:100D3000000000002F5245513A0000006C65646FBE
:100D40006E0000006C65646F6666000031323A33F5
:100D5000343A3536000000003C2F626F64793E3C27
:100D60002F68746D6C3E00003C703E437572726576
:100D70006E742048756D69646974793A3C2F703ED1
:100D8000000000003C703E43757272656E74205422
:100D9000656D70657261747572653A3C2F703E00C6
:100DA0003C703E4C454420436F6E74726F6C3A3C0D
:100DB0002F703E3C666F726D20616374696F6E3D8B
:100DC000226C65646F6E223E3C696E70757420748F
:100DD0007970653D227375626D6974222076616C4D
:100DE00075653D225475726E20746865204C4544CB
:100DF000206F6E2122202F3E3C2F666F726D3E20A9
:100E00003C666F726D20616374696F6E3D226C6524
:100E1000646F6666223E3C696E70757420747970EA
:100E2000653D227375626D6974222076616C75650B
:100E30003D225475726E20746865204C4544206FC5
:100E400066662122202F3E3C2F666F726D3E0000A9
:100E50003C703E43757272656E74204D6963726FAB
:100E6000636F6E74726F6C6C65722054696D653A55
:100E70003C2F703E000000003C21444F4354595029
:100E8000452068746D6C3E3C68746D6C3E3C6865D2
:100E900061643E3C7469746C653E4531353520575C
:100EA0006562205365727665722044656D6F2057C8
:100EB0006562706167653C2F7469746C653E3C6D5A
:100EC00065746120687474702D65717569763D2252
:100ED000726566726573682220636F6E74656E74E6
:100EE0003D2235223E3C2F686561643E3C626F6462
:100EF000793E3C68313E4531353520576562205397
:100F000065727665722044656D6F20576562706109
:100F100067653C2F68313E0018000020F8B500BF1F
:100F2000F8BC08BC9E467047F5094000F10040003F
:100F3000F8B500BFF8BC08BC9E467047CD00400025
:100F4000780E4000500E4000A00D4000840D40007F
:100F5000680D4000580D4000000000000403002010
:100F60006C030020D40300200000000000000000FB
:100F70000000000000000000000000000000000071
:100F80000000000000000000000000000000000061
:100F90000000000000000000000000000000000051
:100FA0000000000000000000000000000000000041
:100FB0000000000000000000000000000000000031
:100FC0000000000000000000000000000000000021
:100FD0000000000000000000000000000000000011
:100FE0000000000000000000000000000000000001
:100FF00000000000000000000000000000000000F1
:1010000001000000000000000E33CDAB34126DE68D
:10101000ECDE05000B0000000000000000000000F6
:1010200000000000000000000000000000000000C0
:1010300000000000000000000000000000000000B0
:1010400000000000000000000000000000000000A0
:101050000000000000000000000000000000000090
:0413800060040020E5
:0400000500400000B7
:00000001FF
