:020000040040BA
:10000000500400203D01400039014000390140000A
:100010003901400039014000390140000000000072
:100020000000000000000000000000003901400056
:100030003901400000000000390140003901400052
:1000400039014000390140003901400039014000C8
:100050003901400039014000390140000000000032
:100060003901400039014000000000003901400022
:100070003901400000000000390140003901400012
:10008000000000000000000039014000390140007C
:100090003901400039014000390140003901400078
:1000A000390140003901400000000000000000005C
:1000B00000000000390140003901400039014000D2
:1000C00039014000390140003901400010B5054CAC
:1000D000237833B9044B13B10448AFF300800123F4
:1000E000237010BD180000200000000048174000D9
:1000F0000C4B43B10C4810B50C49AFF300800C48D1
:10010000036823B910BD0A48036833B97047094B27
:10011000002BF7D0BDE810401847064B002BF5D058
:10012000184700BF00000000481740001C000020D6
:100130004817400000000000FEE7000008B5184B1B
:10014000184A9A4210D0184B154A9A420CD2013BD9
:100150009B1A23F0030304331344124951F8040B90
:1001600042F8040B9A42F9D1104B114A9A420AD232
:10017000013B9B1A23F0030304331344002142F88C
:10018000041B9342FBD10B4B23F0604323F07F030E
:10019000094A9360094B9847094B9847FEE700BF0F
:1001A00000000020481740001800002050000020E8
:1001B000180000200000400000ED00E08513400022
:1001C00011094000034B4FF400621A614FF4805252
:1001D0001A61704700040E4010B444112E4A2F4B90
:1001E000002C08BF1346424200F01F0002F01F021D
:1001F00058BF5042052915D8DFE801F0030B16243B
:1002000032401968012282401143196059690A433A
:100210005A611968012202FA00F0014319601A6953
:100220001043186110BC70475968012202FA00F0AF
:10023000014359601A6FC04302401A675A6F104059
:100240005867EFE75968012202FA00F0014359604C
:100250001A6F02431A675A6F22EA00005867E1E7F3
:100260005968012202FA00F0014359601A6F22EA2C
:1002700000021A675A6F10435867D3E75968012282
:1002800002FA00F0014359601A6F02431A675A6F6D
:1002900010435867C6E700BF000E0E4000100E4026
:1002A00010B444110D4A0E4B002C08BF13464242B5
:1002B00000F01F0002F01F0258BF504239B9596BBD
:1002C000012202FA00F00843586310BC7047196B12
:1002D000012202FA00F008431863F6E7000E0E4010
:1002E00000100E40034B4FF400021A614FF0807271
:1002F0001A61704700040E4030B4134C84FB003484
:10030000A4EBE073114D124C002B08BF2C460E4B92
:1003100083FB0053A3EBE07303EB4303C31A9B017E
:10032000E018E55845F00105E550436861F3020324
:100330004360436843F400434360436862F34E33D1
:10034000436030BC704700BF565555550000014012
:100350000040014008B5044B98470222002108469E
:10036000024B984708BD00BFE5024000F90240007B
:10037000F8B505460F4616464FF40012134B1A61A6
:10038000134B984702210B20124CA04702210C204E
:10039000A04702210D20A04702210E20A0470E4BAE
:1003A0001A6842F001021A605A6842F001025A606B
:1003B000EDB21A6B65F30F221A631A6B67F3000232
:1003C0001A631A6B66F341021A63F8BD00040E400B
:1003D000C5014000D901400000800040064BDA68AA
:1003E00060F30F02DA601A46136913F0010FFBD0B5
:1003F000014B9868C0B270470080004070B5064657
:10040000000A044DA8470446F0B2A84740EA042079
:1004100000B270BDDD03400070B506460D464FF4D6
:1004200080720D4B1A610D4B9847022109200C4C2C
:10043000A04702210A20A0470A4B1A6842F0400256
:100440001A601A6842F010021A605A6866F34B226A
:100450005A601D6270BD00BF00040E40C50140001F
:10046000D901400000060E40034A536913F0020F01
:10047000FBD0014BD861704700060E40044B5B690E
:1004800013F0010F1ABF024B98690020C0B27047E9
:1004900000060E40000000002DE9F0438BB08DF8FF
:1004A00007008DF806108DF805209DF807109DF8BF
:1004B00006309DF805201B0143EA013313430993DD
:1004C00009982D4EB0472D4C00222D4BA0472D4DA5
:1004D00021A3D3E90023A84721A3D3E90023A04700
:1004E000CDE906010998099FB0470022264BA04795
:1004F0001DA3D3E90023A847804689463846B04764
:100500000022214BA04718A3D3E90023A8470246A5
:100510000B4640464946A04715A3D3E90023A04710
:10052000CDE90401DDE90601184CDDE90423A0470B
:10053000174B9847174B1860DDE90601DDE90423E6
:10054000A0470022144B154CA047CDE90201DDE97C
:1005500002010BB0BDE8F0830000000000DC3A406F
:1005600000000000C0D0D9400000000000DC0A40BC
:100570000000000000408FC0350D4000010E40001B
:100580000000103F990A40000000E03E9D0A400034
:1005900035134000380000200000B44055104000E2
:1005A0002DE9F0438BB08DF807008DF806108DF81B
:1005B00005209DF807109DF806309DF805201B01C9
:1005C00043EA013313430993774B1868774B9847F5
:1005D000774C0022774BA0470022774B774DA847F6
:1005E000CDE90601DDE90601DDE90623A047002289
:1005F000734BA04700224FF07C53A047CDE9040184
:10060000DDE90601DDE9046700226E4BA0476E4D6F
:1006100002460B46A84732463B46A847CDE90401AF
:1006200000226A4BDDE90401A0474FA3D3E9002370
:10063000A847CDE90401DDE90601DDE90667DDE94A
:1006400006894BA3D3E90023A04732463B46A04787
:1006500000224FF07B53A04706460F4646A3D3E93E
:10066000002340464946A04702460B4630463946DD
:10067000A84700224FF07B53A047CDE90601002296
:100680004FF07C53DDE90601A0470022504BA847FC
:100690003BA3D3E90023A047CDE9060100220023B4
:1006A000DDE906014B4CA047002859D109983F4B82
:1006B0009847424D02460B4600204749A847CDE9DE
:1006C0000201DDE90289DDE90401DDE90667384C54
:1006D0000022424BA04702460B4640464946A847E7
:1006E00029A3D3E90023A04732463B463C4DA84707
:1006F000CDE90201DDE90201DDE9026724A3D3E9C6
:100700000023A04732463B46A04700224FF07853D3
:10071000A047CDE9060120A3D3E90023DDE90201CA
:10072000A04700224FF07C53A047CDE90401DDE94A
:100730000601DDE90423DDE90267234DA84718A37C
:10074000D3E90023A8470022264BA04732463B4668
:10075000A847CDE90201DDE902010BB0BDE8F08355
:1007600000200021F9E700BF00000000004EA64174
:100770000000000000A0A7400000000080DEC4C010
:1007800000000000A0CFE14000000000006AB84077
:10079000000000000070B740000000000084CCC0E2
:1007A000000000000046CE4038000020350D40001B
:1007B000010E40000000E03F0040EF40990A400079
:1007C00000001CC0008061409D0A40000000D03F36
:1007D0000000F03FD1124000000030410000303FE7
:1007E000551040000000B03F38B5002108200D4CE6
:1007F000A04747F22F400C4DA84747F21050A8479A
:1008000001210820A04700210820A047D020074D43
:10081000A8470020A847064B187101210820A047CF
:1008200038BD00BFA1024000FD034000DD034000D1
:100830003800002030B583B0002108201B4DA847A8
:10084000F7201B4CA0470020A0478DF80700002090
:10085000A0478DF806000020A0478DF80500002075
:10086000A0478DF804000020A0478DF80300002069
:10087000A0478DF8020001210820A8479DF8040038
:100880009DF803109DF802200A4B98470A4CC4E9D2
:1008900002019DF807009DF806109DF80520074B02
:1008A0009847C4E9040103B030BD00BFA102400075
:1008B000DD0340009904400038000020A1054000FD
:1008C00038B50446007828B1034DA84714F8010F45
:1008D0000028FAD138BD00BF6904400008B5044BB8
:1008E0009847002814BF01204FF0FF3008BD00BF1B
:1008F0000114400008B50449044B98470028CCBFB8
:1009000001204FF0FF3008BD1C154000DD084000FD
:100910002DE9F04796B0474A536843F400435360CB
:10092000454B9847454B9847454B98470121082030
:10093000444DA84701210820434CA04701221146FD
:100940001420424B984701211220A8470121122070
:10095000A0470D2104203E4B98473E4B9847DFF8B7
:100960002C914FF000083C4C43E0202DA8BF0025FF
:10097000636913F0010FFBD005F1010AB84716AB0C
:100980001D4405F8200C55460EA8B047B0F1FF3FB6
:10099000EBD032490EA8324B984700283FD131495D
:1009A0000EA82F4B984700283ED12F4A01AB07CA0B
:1009B00003C31A702D4B98472D4BD3E904012D4BDF
:1009C0009847022209A92C4B98472C4E30682C4D91
:1009D000A8477068A84701A8A847B068A847F0686A
:1009E000A84704A8A8473069A84709A8A84770697C
:1009F000A8470EAD09F12C060FCE0FC5336825F8B8
:100A0000023B1B0C2B70CDF84B80CDF84F80CDF8FE
:100A100053808DF8578045461A4E1B4FB4E701218D
:100A20001220094B9847BAE741461220064B9847D7
:100A3000BBE700BF50140E40C5014000E502400076
:100A400055034000D9014000A1024000710340005D
:100A500019044000E907400000060E40241540003C
:100A6000DD0840002C1540003415400035084000DA
:100A70003800002035134000FD1340000000002026
:100A8000C1084000F50840007D044000B814400053
:100A900081F0004102E000BF83F0004330B54FEA2F
:100AA00041044FEA430594EA050F08BF90EA020F9C
:100AB0001FBF54EA000C55EA020C7FEA645C7FEA2F
:100AC000655C00F0E2804FEA5454D4EB5555B8BF52
:100AD0006D420CDD2C4480EA020281EA030382EAC3
:100AE000000083EA010180EA020281EA0303362D55
:100AF00088BF30BD11F0004F4FEA01314FF4801C28
:100B00004CEA113102D0404261EB410113F0004F39
:100B10004FEA03334CEA133302D0524263EB4303F0
:100B200094EA050F00F0A780A4F10104D5F1200E8E
:100B30000DDB02FA0EFC22FA05F2801841F10001E9
:100B400003FA0EF2801843FA05F359410EE0A5F1BD
:100B500020050EF1200E012A03FA0EFC28BF4CF0EE
:100B6000020C43FA05F3C01851EBE37101F00045A4
:100B700007D54FF0000EDCF1000C7EEB00006EEBB1
:100B80000101B1F5801F1BD3B1F5001F0CD349083B
:100B90005FEA30004FEA3C0C04F101044FEA445292
:100BA00012F5800F80F09A80BCF1004F08BF5FEA19
:100BB000500C50F1000041EB045141EA050130BDF9
:100BC0005FEA4C0C404141EB010111F4801FA4F19C
:100BD0000104E9D191F0000F04BF01460020B1FAF1
:100BE00081F308BF2033A3F10B03B3F120020CDA29
:100BF0000C3208DD02F1140CC2F10C0201FA0CF007
:100C000021FA02F10CE002F11402D8BFC2F1200C6B
:100C100001FA02F120FA0CFCDCBF41EA0C01904021
:100C2000E41AA2BF01EB0451294330BD6FEA04046A
:100C30001F3C1CDA0C340EDC04F11404C4F1200255
:100C400020FA04F001FA02F340EA030021FA04F367
:100C500045EA030130BDC4F10C04C4F1200220FABE
:100C600002F001FA04F340EA0300294630BD21FAFC
:100C700004F0294630BD94F0000F83F4801306BFC2
:100C800081F480110134013D4EE77FEA645C18BFB6
:100C90007FEA655C29D094EA050F08BF90EA020F4D
:100CA00005D054EA000C04BF1946104630BD91EA45
:100CB000030F1EBF0021002030BD5FEA545C05D148
:100CC0004000494128BF41F0004130BD14F5800487
:100CD0003CBF01F5801130BD01F0004545F0FE41FB
:100CE00041F470014FF0000030BD7FEA645C1ABF30
:100CF000194610467FEA655C1CBF0B46024650EA67
:100D0000013406BF52EA033591EA030F41F4002192
:100D100030BD00BF90F0000F04BF0021704730B518
:100D20004FF4806404F132044FF000054FF00001ED
:100D300050E700BF90F0000F04BF0021704730B5AE
:100D40004FF4806404F1320410F0004548BF404283
:100D50004FF000013EE700BF42004FEAE2014FEAD8
:100D600031014FEA02701FBF12F07F4393F07F4FB3
:100D700081F06051704792F0000F14BF93F07F4FE5
:100D8000704730B54FF4607401F0004521F0004128
:100D900020E700BF50EA010208BF704730B54FF0AE
:100DA00000050AE050EA010208BF704730B511F0B3
:100DB000004502D5404261EB41014FF4806404F1EB
:100DC00032045FEA915C3FF4DCAE4FF003025FEA6D
:100DD000DC0C18BF03325FEADC0C18BF033202EBF5
:100DE000DC02C2F1200300FA03FC20FA02F001FA4F
:100DF00003FE40EA0E0021FA02F11444C1E600BFEE
:100E000070B54FF0FF0C4CF4E06C1CEA11541DBFA0
:100E10001CEA135594EA0C0F95EA0C0F00F0DEF86B
:100E20002C4481EA030621EA4C5123EA4C5350EA50
:100E3000013518BF52EA033541F4801143F48013A1
:100E400038D0A0FB02CE4FF00005E1FB02E506F032
:100E50000042E0FB03E54FF00006E1FB03569CF087
:100E6000000F18BF4EF0010EA4F1FF04B6F5007F8D
:100E700064F5407404D25FEA4E0E6D4146EB0606FF
:100E800042EAC62141EA55514FEAC52040EA5E5088
:100E90004FEACE2EB4F1FD0C88BFBCF5E06F1ED832
:100EA000BEF1004F08BF5FEA500E50F1000041EB69
:100EB000045170BD06F0004646EA010140EA020016
:100EC00081EA0301B4EB5C04C2BFD4EB0C0541EA38
:100ED000045170BD41F480114FF0000E013C00F34D
:100EE000AB8014F1360FDEBF002001F0004170BD71
:100EF000C4F10004203C35DA0C341BDC04F114048A
:100F0000C4F1200500FA05F320FA04F001FA05F215
:100F100040EA020001F0004221F0004110EBD370E2
:100F200021FA04F642EB06015EEA430E08BF20EA0E
:100F3000D37070BDC4F10C04C4F1200500FA04F3B1
:100F400020FA05F001FA04F240EA020001F0004143
:100F500010EBD37041F100015EEA430E08BF20EAB6
:100F6000D37070BDC4F1200500FA05F24EEA020EFE
:100F700020FA04F301FA05F243EA020321FA04F02D
:100F800001F0004121FA04F220EA020000EBD370E4
:100F90005EEA430E08BF20EAD37070BD94F0000FE4
:100FA0000FD101F00046400041EB010111F4801F18
:100FB00008BF013CF7D041EA060195F0000F18BFC9
:100FC000704703F00046520043EB030313F4801F05
:100FD00008BF013DF7D043EA0603704794EA0C0FBF
:100FE0000CEA135518BF95EA0C0F0CD050EA4106D5
:100FF00018BF52EA4306D1D181EA030101F0004152
:101000004FF0000070BD50EA410606BF1046194679
:1010100052EA430619D094EA0C0F02D150EA013685
:1010200013D195EA0C0F05D152EA03361CBF1046C6
:1010300019460AD181EA030101F0004141F0FE4165
:1010400041F470014FF0000070BD41F0FE4141F4E9
:10105000780170BD70B54FF0FF0C4CF4E06C1CEAE9
:1010600011541DBF1CEA135594EA0C0F95EA0C0F9E
:1010700000F0A7F8A4EB050481EA030E52EA033559
:101080004FEA013100F088804FEA03334FF080557A
:1010900045EA131343EA12634FEA022245EA1115A7
:1010A00045EA10654FEA00260EF000419D4208BF58
:1010B000964244F1FD0404F5407402D25B084FEA05
:1010C0003202B61A65EB03055B084FEA32024FF4B1
:1010D00080104FF4002CB6EB020E75EB030E22BF0E
:1010E000B61A754640EA0C005B084FEA3202B6EBCE
:1010F000020E75EB030E22BFB61A754640EA5C007D
:101100005B084FEA3202B6EB020E75EB030E22BF0C
:10111000B61A754640EA9C005B084FEA3202B6EB0D
:10112000020E75EB030E22BFB61A754640EADC00CC
:1011300055EA060E18D04FEA051545EA16754FEA2E
:1011400006164FEAC30343EA52734FEAC2025FEA4C
:101150001C1CC0D111F4801F0BD141EA00014FF0DB
:1011600000004FF0004CB6E711F4801F04BF0143AC
:101170000020B4F1FD0C88BFBCF5E06F3FF6AFAEC8
:10118000B5EB030C04BFB6EB020C5FEA500C50F158
:10119000000041EB045170BD0EF0004E4EEA1131DB
:1011A00014EB5C04C2BFD4EB0C0541EA045170BDE2
:1011B00041F480114FF0000E013C90E645EA060E26
:1011C0008DE60CEA135594EA0C0F08BF95EA0C0F54
:1011D0003FF43BAF94EA0C0F0AD150EA01347FF49C
:1011E00034AF95EA0C0F7FF425AF104619462CE773
:1011F00095EA0C0F06D152EA03353FF4FDAE1046D6
:10120000194622E750EA410618BF52EA43067FF426
:10121000C5AE50EA41047FF40DAF52EA43057FF4B6
:10122000EBAE12E74FF0FF3C06E000BF4FF0010CC1
:1012300002E000BF4FF0010C4DF804CD4FEA410C25
:101240007FEA6C5C4FEA430C18BF7FEA6C5C1BD0F2
:1012500001B050EA410C0CBF52EA430C91EA030F73
:1012600002BF90EA020F0020704710F1000F91EAD0
:10127000030F58BF994208BF90422CBFD8176FEA9E
:10128000E37040F0010070474FEA410C7FEA6C5C6C
:1012900002D150EA013C07D14FEA430C7FEA6C5C73
:1012A000D6D152EA033CD3D05DF8040B704700BF9F
:1012B0008446104662468C461946634600E000BFED
:1012C00001B5FFF7B7FF002848BF10F1000F01BDBF
:1012D0004DF808EDFFF7F4FF0CBF012000205DF88A
:1012E00008FB00BF4DF808EDFFF7EAFF34BF01200F
:1012F00000205DF808FB00BF4DF808EDFFF7E0FFA8
:1013000094BF012000205DF808FB00BF4DF808EDF8
:10131000FFF7CEFF94BF012000205DF808FB00BF5F
:101320004DF808EDFFF7C4FF34BF012000205DF841
:1013300008FB00BF4FEA410212F5001215D211D589
:101340006FF47873B3EB625212D94FEAC12343F0C2
:10135000004343EA505311F0004F23FA02F018BF44
:10136000404270474FF00000704750EA013005D10D
:1013700011F0004008BF6FF0004070474FF00000D0
:10138000704700BF70B500250C4E0D4CA41BA41077
:10139000A54209D100F0C8F900250A4E0A4CA41B49
:1013A000A410A54205D170BD56F8253098470135E7
:1013B000EEE756F8253098470135F2E7341740003C
:1013C000341740003417400038174000931E222B7A
:1013D00010B50C4604D900231C460B70204610BDE6
:1013E0000A2A09D1002807DA2D230B700121404277
:1013F000214400F021F8F1E70021F9E7FFF7E6BF0B
:10140000F0B5037833B1034618465E1C1B7833B938
:101410001846F0BD0B78002B18BF0020F0BD4D1E04
:10142000441E15F8012F002AF3D014F8017F33462B
:101430009742F6D0E8E70000F0B58BB003460F46C0
:101440006D461C4C04F1200E2E462068616808345D
:1014500003C674453546F7D1217920683171911E54
:10146000222930604FF0000104D939700F46384608
:101470000BB0F0BD781E0646B3FBF2F502FB153348
:101480000DF1280E734413F8283C4C1C06F8013F5C
:101490002B4665B93D557A18CC1AA342E7DA447851
:1014A0001578013300F8015F02F80149F4E721469D
:1014B000E2E700BF0017400001000000020000004A
:1014C00004000000080000001000000020000000E0
:1014D0004000000080000000000100000002000049
:1014E0000004000020202020202020202020202078
:1014F000202020202020000000000000000000002C
:10150000000000007017F8C68C3CF9FF8C00270B18
:10151000D00B43D67D8E18FC4367706B2F5245511C
:101520003A0000006C65646F6E0000006C65646FCB
:101530006666000031323A33343A35360000000036
:101540003C2F626F64793E3C2F68746D6C3E0000E6
:101550003C703E43757272656E742048756D6964A7
:101560006974793A3C2F703E000000003C703E43A5
:10157000757272656E742054656D706572617475F4
:1015800072653A3C2F703E003C703E4C454420430F
:101590006F6E74726F6C3A3C2F703E3C666F726D6A
:1015A00020616374696F6E3D226C65646F6E223ECC
:1015B0003C696E70757420747970653D2273756234
:1015C0006D6974222076616C75653D225475726E6A
:1015D00020746865204C4544206F6E2122202F3EE8
:1015E0003C2F666F726D3E203C666F726D206163AA
:1015F00074696F6E3D226C65646F6666223E3C695D
:101600006E70757420747970653D227375626D69B2
:1016100074222076616C75653D225475726E20745B
:101620006865204C4544206F66662122202F3E3C91
:101630002F666F726D3E00003C703E43757272659E
:101640006E74204D6963726F636F6E74726F6C6C31
:1016500065722054696D653A3C2F703E00000000B1
:101660003C21444F43545950452068746D6C3E3CB6
:1016700068746D6C3E3C686561643E3C7469746C72
:10168000653E453135352057656220536572766574
:10169000722044656D6F20576562706167653C2FED
:1016A0007469746C653E3C6D657461206874747017
:1016B0002D65717569763D22726566726573682263
:1016C00020636F6E74656E743D2235223E3C2F6838
:1016D0006561643E3C626F64793E3C68313E4531F1
:1016E00035352057656220536572766572204465F2
:1016F0006D6F20576562706167653C2F68313E00F1
:101700003031323334353637383961626364656677
:101710006768696A6B6C6D6E6F70717273747576E1
:101720007778797A00000000F8B500BFF8BC08BCF3
:101730009E467047F1004000F8B500BFF8BC08BCF9
:081740009E467047CD004000F9
:101748006016400038164000881540006C154000AF
:0817580050154000401540004F
:0400000500400000B7
:00000001FF
