S013000073616D5F6261636B656E642E73726563A9
S214400000B80800203D014000390140003901400059
S214400010390140003901400039014000000000002D
S2144000200000000000000000000000003901400011
S214400030390140000000000039014000390140000D
S2144000403901400039014000390140003901400083
S21440005039014000390140003901400000000000ED
S21440006039014000390140000000000039014000DD
S21440007039014000000000003901400039014000CD
S2144000800000000000000000390140003901400037
S2144000903901400039014000390140003901400033
S2144000A03901400039014000000000000000000017
S2144000B0000000003901400039014000390140008D
S2144000C039014000390140003901400010B5054C67
S2144000D0237833B9044B13B10448AFF300800123AF
S2144000E0237010BD5804002000000000401F400050
S2144000F00C4B43B10C4810B50C49AFF300800C488C
S214400100036823B910BD0A48036833B97047094BE2
S214400110002BF7D0BDE810401847064B002BF5D013
S214400120184700BF00000000401F40005C0400204D
S214400130401F400000000000FEE7000008B5184BD6
S214400140184A9A4210D0184B154A9A420CD2013B94
S2144001509B1A23F0030304331344124951F8040B4B
S21440016042F8040B9A42F9D1104B114A9A420AD2ED
S214400170013B9B1A23F0030304331344002142F847
S214400180041B9342FBD10B4B23F0604323F07F03C9
S214400190094A9360094B9847094B9847FEE700BFCA
S2144001A000000020401F400054040020B4040020FB
S2144001B0580400200000400000ED00E02D144000F0
S2144001C0AD084000034B4FF400621A614FF4805272
S2144001D01A61704700040E4010B444112E4A2F4B4B
S2144001E0002C08BF1346424200F01F0002F01F02D8
S2144001F058BF5042052915D8DFE801F0030B1624F6
S21440020032401968012282401143196059690A43F5
S2144002105A611968012202FA00F0014319601A690E
S2144002201043186110BC70475968012202FA00F06A
S214400230014359601A6FC04302401A675A6F104014
S2144002405867EFE75968012202FA00F00143596007
S2144002501A6F02431A675A6F22EA00005867E1E7AE
S2144002605968012202FA00F0014359601A6F22EAE7
S21440027000021A675A6F10435867D3E7596801223D
S21440028002FA00F0014359601A6F02431A675A6F28
S21440029010435867C6E700BF000E0E4000100E40E1
S2144002A010B444110D4A0E4B002C08BF1346424270
S2144002B000F01F0002F01F0258BF504239B9596B78
S2144002C0012202FA00F00843586310BC7047196BCD
S2144002D0012202FA00F008431863F6E7000E0E40CB
S2144002E000100E40034B4FF400021A614FF080722C
S2144002F01A61704700040E4030B4134C84FB00343F
S214400300A4EBE073114D124C002B08BF2C460E4B4D
S21440031083FB0053A3EBE07303EB4303C31A9B0139
S214400320E018E55845F00105E550436861F30203DF
S2144003304360436843F400434360436862F34E338C
S214400340436030BC704700BF5655555500000140CD
S2144003500040014008B5044B984702220021084659
S214400360024B984708BD00BFE5024000F902400036
S214400370F8B505460F4616464FF40012134B1A6161
S214400380134B984702210B20124CA04702210C2009
S214400390A04702210D20A04702210E20A0470E4B69
S2144003A01A6842F001021A605A6842F001025A6026
S2144003B0EDB21A6B65F30F221A631A6B67F30002ED
S2144003C01A631A6B66F341021A63F8BD00040E40C6
S2144003D0C5014000D901400000800040064BDA6865
S2144003E060F30F02DA601A46136913F0010FFBD070
S2144003F0014B9868C0B270470080004070B5064612
S214400400000A044DA8470446F0B2A84740EA042034
S21440041000B270BDDD03400070B506460D464FF491
S21440042080720D4B1A610D4B9847022109200C4CE7
S214400430A04702210A20A0470A4B1A6842F0400211
S2144004401A601A6842F010021A605A6866F34B2225
S2144004505A601D6270BD00BF00040E40C5014000DA
S214400460D901400000060E40034A536913F0020FBC
S214400470FBD0014BD861704700060E40044B5B69C9
S21440048013F0010F1ABF024B98690020C0B27047A4
S21440049000060E402DE9F0478CB08DF80F008DF821
S2144004A00E108DF80D209DF80F109DF80E309DF81B
S2144004B00D201B0143EA013313430B930B9CDFF8DB
S2144004C014A1BAF80000364B984706460F46354DFD
S2144004D02046A847344C0022344BA04780468946E5
S2144004E00022334BCDE9006730463946A047314EAF
S2144004F002460B4640464946B04780468946BAF9CA
S2144005000200A84702460B4640464946A047CDE96A
S2144005100801DDF82C900022274BDDE90001A047BA
S214400520CDE900010B9F4846A8470022234BA04731
S214400530DDE90023B047804689463846A847002272
S2144005401E4BA047DDE90023B04702460B46404617
S2144005504946A04706460F46BAF90400A847024651
S2144005600B4630463946A047CDE90601DDE908018D
S214400570134CDDE90623A047124B9847124B1860F0
S214400580DDE90801DDE90623A04700220F4B104CA9
S214400590A047CDE90401DDE904010CB0BDE8F087D1
S2144005A0BD0D4000DD0D4000A90E40000000103F8C
S2144005B00000503F410B40000000203F0000E03E5E
S2144005C0450B4000DD134000780400200000B44096
S2144005D0FD104000000000202DE9F04F8DB08DF852
S2144005E00F008DF80E108DF80D209DF80F109DF819
S2144005F00E309DF80D201B0143EA013313430B9345
S214400600854E864B1868B047854C0022854BA047E0
S2144006100022854B854DA847CDE90801DDE90889CC
S214400620DDE908AB824DB5F90600B047CDE90001DB
S21440063052465B4640464946A04702460B46DDE9E1
S2144006400001A04700224FF07C53A047CDE90601A9
S214400650DDE908ABDDE90689B5F90800B047524642
S2144006605B46A047734F02460B46B84742464B464A
S214400670B847CDE90601DDE90689B5F90A00B04775
S21440068000226D4BA04782468B4600226B4B40466D
S2144006904946A04702460B4650465946B847CDE91C
S2144006A00601DDE90823CDE90023DDE90889DDE917
S2144006B008ABB5F90C00B047DDE90023A047424639
S2144006C04B46A04700224FF07B53A04780468946C2
S2144006D0B5F90E00B04752465B46A04702460B4669
S2144006E040464946B84700224FF07B53A047CDE9E5
S2144006F0080100224FF07C53DDE90801A0470022A4
S2144007004F4BB84706460F46288A4E4B98470246F8
S2144007100B4630463946A047CDE908010022002363
S214400720DDE90801484CA04700286CD10B983A4DAB
S214400730A847DFF8F8A002460B4600204349D047BA
S214400740CDE90401DDE90489DDE90601DDE9086754
S214400750334C00223E4BA04702460B464046494695
S214400760D0472BA3D3E90023A04732463B46394E19
S214400770B047CDE90401DDE90489DDE90467DFF827
S214400780B0A0BAF91200A84742464B46A0473246A8
S2144007903B46A04700224FF07853A047CDE90801DA
S2144007A0DDE90467BAF91400A84732463B46A0473D
S2144007B000224FF07C53A047CDE90601DDE90867EB
S2144007C0DDE90623CDE90023DDE90489BAF9160000
S2144007D0A84782468B46174DDDE90023304639460A
S2144007E0A84702460B4650465946A84700221A4B91
S2144007F0A04742464B46A847CDE90401DDE904013F
S2144008000DB0BDE8F08F00200021F9E7AFF300807F
S21440081000000000006AB840DD0D4000780400206B
S214400820A90E40000000E03F0040EF40410B400072
S21440083000000020450B40000000F0400000D03F84
S2144008400000F03FBD0D40007913400000003041ED
S2144008500000303FFD1040000000B03F38B5044671
S214400860007828B1034DA84714F8010F0028FAD1A4
S21440087038BD00BF6904400008B5044B98470028BF
S21440088014BF01204FF0FF3008BD00BF6117400085
S21440089008B50449044B98470028CCBF01204FF0C8
S2144008A0FF3008BD381D4000790840002DE9F04F64
S2144008B09DB0804A536843F4004353607E4B98474C
S2144008C07E4B98477E4B9847012108207D4DA84790
S2144008D0012108207C4CA0470122114614207B4B66
S2144008E0984700210820A04747F22F40784EB0474F
S2144008F047F21050B04701210820A04700210820A9
S214400900A047D020734EB0470020B047724B1871B6
S21440091001210820A04701211220A84701211220CA
S214400920A0470D2104206D4B98474FF000096C4CB2
S2144009306C4D68E0202EA8BF0026636913F0010FB7
S214400940FBD0771CA8471CAB1E4406F8200C3E463E
S21440095014A8C047B0F1FF3FECD0634914A8634BDE
S2144009609847012800F09B80614914A85F4B984740
S214400970012800F09980584F5E4ED7E90201B047F3
S2144009800A2205A9DFF8A081C047D7E90201D7E9C6
S2144009900223CDE900230022574BDFF890A1D04731
S2144009A082468B46DDE90001B04700EB8000400000
S2144009B0524B984702460B4650465946DFF870A1C0
S2144009C0D047B0470A220AA9C047D7E90401B04732
S2144009D00A220FA9C0474A4FB8694A4EB047F8693D
S2144009E0B0474948B04705A8B0474848B0470AA866
S2144009F0B0474748B0474748B0470FA8B047464873
S214400A00B047386AB047494608202F4FB847F720C6
S214400A10304EB0474846B0478DF80E004846B0477F
S214400A208DF80F004846B0478DF810004846B0474E
S214400A308DF811004846B0478DF812004846B0473A
S214400A408DF8130001210820B8479DF811009DF845
S214400A5012109DF81320314B98471F4EC6E90201ED
S214400A609DF80E009DF80F109DF810202C4B9847CF
S214400A70C6E9040114AE2B4F0FCF0FC63B6826F8CD
S214400A80023B1B0C3370CDF86390CDF86790CDF8E1
S214400A906B908DF86F904E46DFF8988058E70121AE
S214400AA01220094B98475FE749461220064B984765
S214400AB061E700BF50140E40C5014000E50240000B
S214400AC055034000D9014000A10240007103400098
S214400AD0FD034000DD034000780400201904400078
S214400AE000060E407D0440003C1D40007908400052
S214400AF0441D4000DD13400000002440DD0D400052
S214400B00000000205D0840004C1D4000681D40006D
S214400B106C1D4000701D40008C1D40009504400038
S214400B20D9054000181D4000AD144000A90E4000F5
S214400B30410B40009108400081F0004102E000BFB8
S214400B4083F0004330B54FEA41044FEA430594EA48
S214400B50050F08BF90EA020F1FBF54EA000C55EA83
S214400B60020C7FEA645C7FEA655C00F0E2804FEA54
S214400B705454D4EB5555B8BF6D420CDD2C4480EA36
S214400B80020281EA030382EA000083EA010180EA66
S214400B90020281EA0303362D88BF30BD11F0004FB4
S214400BA04FEA01314FF4801C4CEA113102D04042EA
S214400BB061EB410113F0004F4FEA03334CEA133325
S214400BC002D0524263EB430394EA050F00F0A7803D
S214400BD0A4F10104D5F1200E0DDB02FA0EFC22FA38
S214400BE005F2801841F1000103FA0EF2801843FA2C
S214400BF005F359410EE0A5F120050EF1200E012A1D
S214400C0003FA0EFC28BF4CF0020C43FA05F3C0185A
S214400C1051EBE37101F0004507D54FF0000EDCF1D3
S214400C20000C7EEB00006EEB0101B1F5801F1BD37C
S214400C30B1F5001F0CD349085FEA30004FEA3C0C80
S214400C4004F101044FEA445212F5800F80F09A8076
S214400C50BCF1004F08BF5FEA500C50F1000041EB7A
S214400C60045141EA050130BD5FEA4C0C404141EB7E
S214400C70010111F4801FA4F10104E9D191F0000FA5
S214400C8004BF01460020B1FA81F308BF2033A3F128
S214400C900B03B3F120020CDA0C3208DD02F1140C1F
S214400CA0C2F10C0201FA0CF021FA02F10CE002F15A
S214400CB01402D8BFC2F1200C01FA02F120FA0CFC53
S214400CC0DCBF41EA0C019040E41AA2BF01EB04519C
S214400CD0294330BD6FEA04041F3C1CDA0C340EDC9A
S214400CE004F11404C4F1200220FA04F001FA02F3DD
S214400CF040EA030021FA04F345EA030130BDC4F19B
S214400D000C04C4F1200220FA02F001FA04F340EA8F
S214400D100300294630BD21FA04F0294630BD94F040
S214400D20000F83F4801306BF81F480110134013D27
S214400D304EE77FEA645C18BF7FEA655C29D094EA98
S214400D40050F08BF90EA020F05D054EA000C04BF16
S214400D501946104630BD91EA030F1EBF0021002001
S214400D6030BD5FEA545C05D14000494128BF41F0A0
S214400D70004130BD14F580043CBF01F5801130BD04
S214400D8001F0004545F0FE4141F470014FF000008F
S214400D9030BD7FEA645C1ABF194610467FEA655C40
S214400DA01CBF0B46024650EA013406BF52EA0335E2
S214400DB091EA030F41F4002130BD00BF90F0000FD0
S214400DC004BF0021704730B54FF4806404F132040C
S214400DD04FF000054FF0000150E700BF90F0000FC5
S214400DE004BF0021704730B54FF4806404F13204EC
S214400DF010F0004548BF40424FF000013EE700BFBC
S214400E0042004FEAE2014FEA31014FEA02701FBF4B
S214400E1012F07F4393F07F4F81F06051704792F01D
S214400E20000F14BF93F07F4F704730B54FF4607497
S214400E3001F0004521F0004120E700BF50EA0102E2
S214400E4008BF704730B54FF000050AE050EA01028F
S214400E5008BF704730B511F0004502D5404261EBFF
S214400E6041014FF4806404F132045FEA915C3FF440
S214400E70DCAE4FF003025FEADC0C18BF03325FEAD9
S214400E80DC0C18BF033202EBDC02C2F1200300FA8E
S214400E9003FC20FA02F001FA03FE40EA0E0021FAB3
S214400EA002F11444C1E600BF70B54FF0FF0C4CF49D
S214400EB0E06C1CEA11541DBF1CEA135594EA0C0F53
S214400EC095EA0C0F00F0DEF82C4481EA030621EA8E
S214400ED04C5123EA4C5350EA013518BF52EA0335C9
S214400EE041F4801143F4801338D0A0FB02CE4FF07B
S214400EF00005E1FB02E506F00042E0FB03E54FF0AB
S214400F000006E1FB03569CF0000F18BF4EF0010EA2
S214400F10A4F1FF04B6F5007F64F5407404D25FEA9E
S214400F204E0E6D4146EB060642EAC62141EA555151
S214400F304FEAC52040EA5E504FEACE2EB4F1FD0C93
S214400F4088BFBCF5E06F1ED8BEF1004F08BF5FEA11
S214400F50500E50F1000041EB045170BD06F00046C3
S214400F6046EA010140EA020081EA0301B4EB5C0470
S214400F70C2BFD4EB0C0541EA045170BD41F4801168
S214400F804FF0000E013C00F3AB8014F1360FDEBF8D
S214400F90002001F0004170BDC4F10004203C35DA69
S214400FA00C341BDC04F11404C4F1200500FA05F3EC
S214400FB020FA04F001FA05F240EA020001F000428D
S214400FC021F0004110EBD37021FA04F642EB060103
S214400FD05EEA430E08BF20EAD37070BDC4F10C042D
S214400FE0C4F1200500FA04F320FA05F001FA04F2F1
S214400FF040EA020001F0004110EBD37041F10001DD
S2144010005EEA430E08BF20EAD37070BDC4F12005E7
S21440101000FA05F24EEA020E20FA04F301FA05F24F
S21440102043EA020321FA04F001F0004121FA04F2F7
S21440103020EA020000EBD3705EEA430E08BF20EAC7
S214401040D37070BD94F0000F0FD101F00046400001
S21440105041EB010111F4801F08BF013CF7D041EA83
S214401060060195F0000F18BF704703F00046520087
S21440107043EB030313F4801F08BF013DF7D043EA58
S2144010800603704794EA0C0F0CEA135518BF95EA0E
S2144010900C0F0CD050EA410618BF52EA4306D1D195
S2144010A081EA030101F000414FF0000070BD50EAB4
S2144010B0410606BF1046194652EA430619D094EA3E
S2144010C00C0F02D150EA013613D195EA0C0F05D128
S2144010D052EA03361CBF104619460AD181EA03017C
S2144010E001F0004141F0FE4141F470014FF0000034
S2144010F070BD41F0FE4141F4780170BD70B54FF0CF
S214401100FF0C4CF4E06C1CEA11541DBF1CEA13554E
S21440111094EA0C0F95EA0C0F00F0A7F8A4EB050430
S21440112081EA030E52EA03354FEA013100F0888027
S2144011304FEA03334FF0805545EA131343EA1263F0
S2144011404FEA022245EA111545EA10654FEA0026A5
S2144011500EF000419D4208BF964244F1FD0404F55E
S214401160407402D25B084FEA3202B61A65EB0305BA
S2144011705B084FEA32024FF480104FF4002CB6EB77
S214401180020E75EB030E22BFB61A754640EA0C00F7
S2144011905B084FEA3202B6EB020E75EB030E22BF37
S2144011A0B61A754640EA5C005B084FEA3202B6EB78
S2144011B0020E75EB030E22BFB61A754640EA9C0037
S2144011C05B084FEA3202B6EB020E75EB030E22BF07
S2144011D0B61A754640EADC0055EA060E18D04FEAC5
S2144011E0051545EA16754FEA06164FEAC30343EA65
S2144011F052734FEAC2025FEA1C1CC0D111F4801F32
S2144012000BD141EA00014FF000004FF0004CB6E72A
S21440121011F4801F04BF01430020B4F1FD0C88BFC9
S214401220BCF5E06F3FF6AFAEB5EB030C04BFB6EBD4
S214401230020C5FEA500C50F1000041EB045170BDC7
S2144012400EF0004E4EEA113114EB5C04C2BFD4EBF4
S2144012500C0541EA045170BD41F480114FF0000E78
S214401260013C90E645EA060E8DE60CEA135594EAF4
S2144012700C0F08BF95EA0C0F3FF43BAF94EA0C0FF7
S2144012800AD150EA01347FF434AF95EA0C0F7FF46C
S21440129025AF104619462CE795EA0C0F06D152EAC0
S2144012A003353FF4FDAE1046194622E750EA4106A4
S2144012B018BF52EA43067FF4C5AE50EA41047FF4B5
S2144012C00DAF52EA43057FF4EBAE12E74FF0FF3C1A
S2144012D006E000BF4FF0010C02E000BF4FF0010CEB
S2144012E04DF804CD4FEA410C7FEA6C5C4FEA430C64
S2144012F018BF7FEA6C5C1BD001B050EA410C0CBFB3
S21440130052EA430C91EA030F02BF90EA020F002014
S214401310704710F1000F91EA030F58BF994208BF7B
S21440132090422CBFD8176FEAE37040F00100704738
S2144013304FEA410C7FEA6C5C02D150EA013C07D18F
S2144013404FEA430C7FEA6C5CD6D152EA033CD3D0DA
S2144013505DF8040B704700BF8446104662468C46D4
S2144013601946634600E000BF01B5FFF7B7FF002807
S21440137048BF10F1000F01BD4DF808EDFFF7F4FF30
S2144013800CBF012000205DF808FB00BF4DF808EDBB
S214401390FFF7EAFF34BF012000205DF808FB00BFDE
S2144013A04DF808EDFFF7E0FF94BF012000205DF800
S2144013B008FB00BF4DF808EDFFF7CEFF94BF0120B5
S2144013C000205DF808FB00BF4DF808EDFFF7C4FFAE
S2144013D034BF012000205DF808FB00BF4FEA410201
S2144013E012F5001215D211D56FF47873B3EB625232
S2144013F012D94FEAC12343F0004343EA505311F059
S214401400004F23FA02F018BF404270474FF00000EA
S214401410704750EA013005D111F0004008BF6FF028
S214401420004070474FF00000704700BF70B50F4E49
S2144014300F4D761BB61018BF002405D0013455F862
S214401440043B9847A642F9D10A4E0B4D00F066FD84
S214401450761BB61018BF002406D0013455F8043B5E
S2144014609847A642F9D170BD70BD00BF281F400006
S214401470281F4000301F4000281F4000931E222B8C
S21440148010D80A2A10B506D000230C46194400F09E
S21440149073FA204610BD0028F6DA2D2340420B7022
S2144014A00123F2E700200870704700BFFFF7E6BF51
S2144014B02DE9F0414FF0010E002574464FF0FF36FF
S2144014C02B198B4200EB06070DD23F5D10F803C088
S2144014D0BC452DD21D460124A3EB060E2B198B428C
S2144014E000EB0607F1D34FF00108002544464FF0C5
S2144014F0FF37C2F800E02B19994200EB070E0ED9D1
S2144015001EF804E010F803C0F44518D91D4601241F
S214401510A3EB07082B19994200EB070EF0D80137CA
S214401520701C874224BF3846C2F80080BDE8F08170
S2144015300CD04FF0010E2E4674467544C0E70BD0D3
S2144015404FF001082F4644464544D4E7744512BF41
S21440155001341D460124B3E7444512BF01341D46FD
S2144015600124C8E72DE9F04FADF2144D1646054666
S2144015708B461046194603AA1C46FFF799FF81463C
S21440158003AB0DF20C4243F8044F9342FBD14CB1EF
S214401590631E721E04A812F8011F40F8213013F192
S2144015A0FF33F8D203994A463144304600F098FA61
S2144015B000286FD109F1FF330093F3188246019358
S2144015C023468046544658469A4608EB0A073A1A37
S2144015D00021284400F03EFA002856D1002F54D06F
S2144015E0EB1913F8012C04AB53F822304BB124B15D
S2144015F0039A934201D2AAEB020398440024384649
S214401600E3E74C45234638BF4B460AF1FF3E734559
S21440161013D208EB0302A85C16F803C02A4484459C
S21440162006EB030106D02CE011F801CF12F8010FAB
S214401630844526D101337345F6D34C45009980F056
S2144016408980009B08EB0302019BA85C1B782A4418
S21440165098427FD1019804F1FF3B06E010F801CD97
S21440166012F801EDF44503D119464B1E9B45F5D1C2
S21440167001348C4270D8039C3846A044AAEB04043C
S214401680A3E7C9F101029044B7E700200DF2144DDC
S214401690BDE8F08FA4EB09034B4538BF4B4609F134
S2144016A0FF380133039306EB080358464FF0000A11
S2144016B0CB4699460AEB04073A1A0021284400F024
S2144016C0C9F90028E1D1002FDFD0EB1913F8012C1F
S2144016D004AB53F82230A3BB601E834515D20AEBF9
S2144016E00B0215F802E016F80B302A449E4506EB2E
S2144016F00B015B4606D027E011F801CF12F801EF48
S214401700F44521D101338342F6D3B8F1FF3F11D0DF
S2144017100AEB0802AB5C99F800102A4499420FD1B4
S2144017204B4605E013F8010D12F8011D884207D11B
S214401730B342F7D105EB0A000DF2144DBDE8F08F29
S214401740039B9A443846B5E7CBF1010292449A444B
S2144017503846AFE749468BE705EB080096E700BFFB
S2144017600278002A00F001812DE9F04F91F80080C0
S21440177085B04446B8F1000F16D0864601F1010CFC
S214401780012704E0634613F8014B64B19C46A2422D
S21440179014BF002707F001071EF8012F002AF1D1D9
S2144017A09CF80030FBB917B105B0BDE8F08F0E4687
S2144017B0054641460130ACEB060400F0C1F9074649
S2144017C088B1012CF0D0281987428CBF0121C11B5B
S2144017D01F2C8B460BD9234632463846FFF7C2FEAF
S2144017E005B0BDE8F08F002005B0BDE8F08F03AA35
S2144017F021463046FFF75CFE039980460246314458
S214401800304600F06DF9002857D181460546B2466D
S214401810584608F1FF330093F31801936619321ABD
S2144018200021384400F016F90028DCD1002EDAD02A
S214401830C845434638BF4B469C4212D95A19B95CF4
S2144018401AF803003A4488420AEB030E06D02CE00E
S2144018501EF8010F12F8011F884226D101339C4220
S214401860F6D1C845009940F28380009BEA18019B58
S214401870B85C1B783A4498427AD1019809F1FF3B0C
S21440188006E010F801CD12F801EDF44503D11946F3
S2144018904B1E5B45F5D109F10109894557D8039B95
S2144018A030461D44A4EB0309B8E7C8F101021544CD
S2144018B01D444FF000093046B0E7A4EB080343450B
S2144018C038BF434608F1FF390133039306EB09035B
S2144018D058460025BB469A4667193A1A002158448E
S2144018E000F0B8F800287FF47EAF002F3FF47BAFBF
S2144018F0444515D908EB05021BF8020016F80830D7
S2144019005A44984206EB0801434606D023E011F8B5
S21440191001EF12F8010F86451DD101339C42F6D1E6
S214401920B9F1FF3F12D005EB09021BF802109AF8F6
S21440193000305A44994214D1534605E013F8010D3D
S21440194012F8011D88420CD1B342F7D15F46781990
S21440195005B0BDE8F08FC8F1010215441D44384675
S214401960BAE7039B38461D44B6E70B7813B9704771
S214401970414690E700207047F0B58BB06F4615465D
S214401980DFF870E004460E46BEE80F000FC7BEE81C
S2144019900F000FC79EE80300AB1E47F8040B222B30
S2144019A0397022D8711E0846002300E01346B4FB67
S2144019B0F5F205FB12440AAF3C4414F8287C144662
S2144019C000F8017F5A1C002CF0D1B454F2184BB1E9
S2144019D001344D781778181B844201F8017F02F8CD
S2144019E00159F5DB30460BB0F0BD002030700BB02F
S2144019F0F0BD00BFF41E4000024B13B1024800F099
S214401A0005B8704700000000191A40000023014640
S214401A101A46184600F008B938B50A4C0A4D641BF9
S214401A20A4100AD004F18043013B05EB8305013C3A
S214401A3055F804399847002CF9D1BDE8384000F0F5
S214401A4077BA00BF401F40003C1F4000704700BFB1
S214401A50704700BF830770B4CDB23DD0541E0AB362
S214401A600378AB421FD0431C05E014F1FF3419D372
S214401A700278AA4217D013F0030F184603F1010369
S214401A80F3D1032C11D84CB30378AB420BD00444AB
S214401A90431C02E00278AA4205D09C42184603F155
S214401AA00103F7D1002070BC7047090289B2294370
S214401AB041EA0141036806464B40A3F1013222EA5F
S214401AC0030313F0803F00F1040003D1043C032CD1
S214401AD0F0D8D8E73046D7E71446D2E72046E2E7C4
S214401AE0032A70B422D940EA01039B0711D0037839
S214401AF00C78A3421DD10A44013105E010F8013F9D
S214401B0011F8014BA34214D19142F7D1002070BC8A
S214401B1070470D6806680C46AE42034601F1040164
S214401B2000F1040008D1043A032AF2D8002ADED194
S214401B30ECE7181B70BC704721461846D7E700BF35
S214401B40C9B2002941D08207F0B467D00378002B91
S214401B5068D0994237D0431C04E013F8010B90B389
S214401B6081422FD09A071C46F7D1256841EA0123C7
S214401B7043EA034383EA0506A6F10130A5F10132A4
S214401B8020EA060022EA0502024312F0803F11D105
S214401B90204650F8046F83EA0607A7F10135A6F100
S214401BA0013225EA070522EA06022A4312F0803F60
S214401BB0EFD00446207818B905E014F8010F10B1AC
S214401BC08142FAD12046F0BC7047830724D0037880
S214401BD0002BF9D0431C03E002780133002AF3D0EF
S214401BE099071846F8D11968A1F1013222EA010294
S214401BF012F0803F08D153F8041FA1F1013222EAC7
S214401C00010212F0803FF6D01A78184642B110F81A
S214401C10013F002BFBD170470346E4E70446A4E7A8
S214401C20184670471846CEE72DE9F8432C4D064631
S214401C30286898460F469146FFF708FF294B1C68D0
S214401C40D4F84831002B3ED05A681F2A1CDC02F1DB
S214401C50010E76B1012103EB8204C4F88890D3F8D4
S214401C60880191400843022EC3F88801C4F80881D1
S214401C7023D00232C3F804E0286843F82270FFF706
S214401C80E7FE0020BDE8F883174B0BB34FF4C8704F
S214401C90AFF300800346D8B10020D4F848114FF087
S214401CA0010E586019600246C4F84831C3F88801EE
S214401CB0C3F88C01002EDCD0CCE7D3F88C0101436E
S214401CC0C3F88C11D5E704F5A673C4F84831BBE7D2
S214401CD02868FFF7BDFE4FF0FF30BDE8F88300BF31
S214401CE050040020F01E40000000000001000000EC
S214401CF00200000004000000080000001000000081
S214401D0020000000400000008000000000010000AD
S214401D100002000000040000202020202020202078
S214401D20202020202020202020200000000000002E
S214401D3000000000000000000A0000006C65646FB0
S214401D40666600006C65646F6E0000003C703E4343
S214401D50757272656E742054656D706572617475C7
S214401D6072653A3C2F703E002E0000002043000073
S214401D703C703E43757272656E7420707265737304
S214401D807572653A3C2F703E00000000205061009E
S214401D903C2F626F64793E3C2F68746D6C3E000049
S214401DA03C703E4C454420436F6E74726F6C3A3CB8
S214401DB02F703E3C666F726D20616374696F6E3D36
S214401DC0226C65646F6E223E3C696E70757420743A
S214401DD07970653D227375626D6974222076616CF8
S214401DE075653D225475726E20746865204C454476
S214401DF0206F6E2122202F3E3C2F666F726D3E2054
S214401E003C666F726D20616374696F6E3D226C65CF
S214401E10646F6666223E3C696E7075742074797095
S214401E20653D227375626D6974222076616C7565B6
S214401E303D225475726E20746865204C4544206F70
S214401E4066662122202F3E3C2F666F726D3E000054
S214401E503C21444F43545950452068746D6C3E3C79
S214401E6068746D6C3E3C686561643E3C7469746C35
S214401E70653E453135352057656220536572766537
S214401E80722044656D6F20576562706167653C2FB0
S214401E907469746C653E3C6D6574612068747470DA
S214401EA02D65717569763D22726566726573682226
S214401EB020636F6E74656E743D2235223E3C2F68FB
S214401EC06561643E3C626F64793E3C68313E4531B4
S214401ED035352057656220536572766572204465B5
S214401EE06D6F20576562706167653C2F68313E00B4
S214401EF02800002030313233343536373839616285
S214401F00636465666768696A6B6C6D6E6F707172E4
S214401F10737475767778797A00000000F8B500BF5C
S214401F20F8BC08BC9E467047F9194000F1004000D6
S214401F30F8B500BFF8BC08BC9E467047CD004000D0
S214401F40706B436718FCF9FF8C00270BD00B43D609
S214401F507D8E7017F8C68C3C501E4000A01D400079
S214401F60901D400000000000000000001403002008
S214401F707C030020E4030020000000000000000076
S214401F80000000000000000000000000000000000C
S214401F9000000000000000000000000000000000FC
S214401FA000000000000000000000000000000000EC
S214401FB000000000000000000000000000000000DC
S214401FC000000000000000000000000000000000CC
S214401FD000000000000000000000000000000000BC
S214401FE000000000000000000000000000000000AC
S214401FF0000000000000000000000000000000009C
S214402000000000000000000000000000000000008B
S21440201001000000000000000E33CDAB34126DE628
S214402020ECDE05000B000000000000000000000091
S214402030000000000000000000000000000000005B
S214402040000000000000000000000000000000004B
S214402050000000000000000000000000000000003B
S214402060000000000000000000000000000000002B
S2084023909004002050
S804400000BB
