:020000040040BA
:10000000700800203D0140003901400039014000E6
:100010003901400039014000390140000000000072
:100020000000000000000000000000003901400056
:100030003901400000000000390140003901400052
:1000400039014000390140003901400039014000C8
:100050003901400039014000390140000000000032
:100060003901400039014000000000003901400022
:100070003901400000000000390140003901400012
:10008000000000000000000039014000390140007C
:100090003901400039014000390140003901400078
:1000A000390140003901400000000000000000005C
:1000B00000000000390140003901400039014000D2
:1000C00039014000390140003901400010B5054CAC
:1000D000237833B9044B13B10448AFF300800123F4
:1000E000237010BD2C040020000000001C04400000
:1000F0000C4B43B10C4810B50C49AFF300800C48D1
:10010000036823B910BD0A48036833B97047094B27
:10011000002BF7D0BDE810401847064B002BF5D058
:10012000184700BF000000001C04400030040020FD
:100130001C04400000000000FEE7000008B5184B5A
:10014000184A9A4210D0184B154A9A420CD2013BD9
:100150009B1A23F0030304331344124951F8040B90
:1001600042F8040B9A42F9D1104B114A9A420AD232
:10017000013B9B1A23F0030304331344002142F88C
:10018000041B9342FBD10B4B23F0604323F07F030E
:10019000094A9360094B9847094B9847FEE700BF0F
:1001A000000000201C0440002C0400206C040020EF
:1001B0002C0400200000400000ED00E07902400027
:1001C000C501400000B585B00222234B1A60234AC6
:1001D000234B1A60D43B4FF400621A604FF40011B5
:1001E0001960204903F6D4231960E03B1A604FF4EC
:1001F00080521A604FF400521A604FF480421A6025
:10020000194AA3F55823A3F552631A600123174A2C
:100210001360043213604FF47F412C321160144A92
:1002200007CA0DF1100E0EE907009DF80410114ADF
:1002300011601A460F4909E004AB134413F80C3C53
:100240000B600132D2B20C2A28BF002240F6B8332C
:10025000013BFDD1F0E700BF0800002000434D50F6
:10026000E4040E40004F49500049505300800040C4
:10027000E80340000C80004070B50F4E0F4D761B18
:10028000B61018BF002405D0013455F8043B984738
:10029000A642F9D10A4E0B4D00F0AEF8761BB6100F
:1002A00018BF002406D0013455F8043B9847A642F5
:1002B000F9D170BD70BD00BF0404400004044000CB
:1002C0000C04400004044000024B13B1024800F04B
:1002D00005B8704700000000E90240000023014615
:1002E0001A46184600F01EB838B50A4C0A4D641B71
:1002F000A4100AD004F18043013B05EB8305013CC7
:1003000055F804399847002CF9D1BDE8384000F081
:100310007DB800BF1C04400018044000704700BFB7
:10032000704700BF2DE9F8432C4D064628689846D3
:100330000F469146FFF7F2FF294B1C68D4F848316D
:10034000002B3ED05A681F2A1CDC02F1010E76B148
:10035000012103EB8204C4F88890D3F8880191400E
:100360000843022EC3F88801C4F8088123D0023262
:10037000C3F804E0286843F82270FFF7D1FF00209B
:10038000BDE8F883174B0BB34FF4C870AFF3008090
:100390000346D8B10020D4F848114FF0010E586040
:1003A00019600246C4F84831C3F88801C3F88C01CB
:1003B000002EDCD0CCE7D3F88C010143C3F88C11BC
:1003C000D5E704F5A673C4F84831BBE72868FFF702
:1003D000A7FF4FF0FF30BDE8F88300BF28040020DE
:1003E000F40340000000000068656C6C6F20776FBC
:1003F000726C642100000020F8B500BFF8BC08BC96
:100400009E467047C9024000F1004000F8B500BFA9
:0C041000F8BC08BC9E467047CD004000C0
:10041C0000000000EC02002054030020BC0300206C
:10042C0000000000000000000000000000000000C0
:10043C0000000000000000000000000000000000B0
:10044C0000000000000000000000000000000000A0
:10045C000000000000000000000000000000000090
:10046C000000000000000000000000000000000080
:10047C000000000000000000000000000000000070
:10048C000000000000000000000000000000000060
:10049C000000000000000000000000000000000050
:1004AC000000000000000000000000000000000040
:1004BC00000000000000000001000000000000002F
:1004CC000E33CDAB34126DE6ECDE05000B000000F4
:1004DC000000000000000000000000000000000010
:1004EC000000000000000000000000000000000000
:1004FC0000000000000000000000000000000000F0
:10050C0000000000000000000000000000000000DF
:0C083C0000000000000000004804002044
:0400000500400000B7
:00000001FF
