S010000075617274546573742E73726563B8
S214400000780800203D014000390140003901400099
S214400010390140003901400039014000000000002D
S2144000200000000000000000000000003901400011
S214400030390140000000000039014000390140000D
S2144000403901400039014000390140003901400083
S21440005039014000390140003901400000000000ED
S21440006039014000390140000000000039014000DD
S21440007039014000000000003901400039014000CD
S2144000800000000000000000390140003901400037
S2144000903901400039014000390140003901400033
S2144000A03901400039014000000000000000000017
S2144000B0000000003901400039014000390140008D
S2144000C039014000390140003901400010B5054C67
S2144000D0237833B9044B13B10448AFF300800123AF
S2144000E0237010BD3404002000000000C00F400004
S2144000F00C4B43B10C4810B50C49AFF300800C488C
S214400100036823B910BD0A48036833B97047094BE2
S214400110002BF7D0BDE810401847064B002BF5D013
S214400120184700BF00000000C00F40003804002001
S214400130C00F400000000000FEE7000008B5184B66
S214400140184A9A4210D0184B154A9A420CD2013B94
S2144001509B1A23F0030304331344124951F8040B4B
S21440016042F8040B9A42F9D1104B114A9A420AD2ED
S214400170013B9B1A23F0030304331344002142F847
S214400180041B9342FBD10B4B23F0604323F07F03C9
S214400190094A9360094B9847094B9847FEE700BFCA
S2144001A000000020C00F40003404002074040020EB
S2144001B0340400200000400000ED00E061054000EF
S2144001C02D04400010B44411324A334B002C08BF73
S2144001D013461C46424200F01F0002F01F0258BF62
S2144001E050420139062953D8DFE801F0040B19279D
S2144001F035424C00012202FA00F01A6902431A61A5
S21440020046E0012202FA00F05A6802435A60C043B0
S2144002101A6F02401A675A6F1040586738E001223A
S21440022002FA00F05A6802435A601A6F02431A678D
S2144002305A6F22EA000058672AE0012202FA00F0CC
S2144002405A6802435A601A6F22EA00021A675A6FC7
S214400250104358671CE0012202FA00F05A68024335
S2144002605A601A6F02431A675A6F104358670FE076
S21440027001228240196E11431966D3F894100A433E
S214400280C3F89420012303FA00F0236E0343236649
S21440029010BC7047000E0E4000100E4010B44411C3
S2144002A00D4A0E4B002C08BF1346424200F01F007A
S2144002B002F01F0258BF504239B9012202FA00F03C
S2144002C05A6B02435A6310BC7047012202FA00F090
S2144002D01A6B02431A63F6E7000E0E4000100E40FB
S2144002E038B50C46022109200C4DA84702210A20A9
S2144002F0A8470B4B1A6842F040021A601A6842F050
S21440030010021A6004331A6842F400621A601A68CF
S21440031022F4C0621A601C331C6038BDC501400020
S21440032000060E40034A136813F0020FFBD0024B40
S2144003301860704714060E401C060E40044A1368A8
S21440034013F0010FFBD0034B1868C0B2704700BFD4
S21440035014060E4018060E40104A114B1A60114BF8
S214400360114AC2F8E43002F50072C2F8E4300F4B8E
S2144003701B680F4A1A600F4B0F4AC2F8E43002F56A
S2144003808042C2F8E43002F54C2202F582621368DD
S21440039043F4200343F410631360704700434D500A
S2144003A0E4040E40004F4950000E0E40E4800040EA
S2144003B000495053004D495400000140F8B5002113
S2144003C01220174B98470024164D174E0D2704E071
S2144003D0013440F201139C4209D02B68185DB047A7
S2144003E02B681B5D0A2BF3D13846B047F0E7002454
S2144003F00C4D0D4E0D2703E00134B4F5847F09D033
S2144004006B68185DB0476B681B5D0A2BF4D13846A5
S214400410B047F1E701211220014B9847F8BD00BFD5
S2144004209D02400000000020250340002DE9F043D7
S21440043085B03F4B9847012111203E4DA8470121EA
S21440044011203D4CA04701211220A847012112202F
S214400450A04719210420394B9847394B6C460FCB9F
S21440046007C42380374B98470025374C374F384EC4
S21440047010E000211120304B984741E00DF1FF334A
S2144004800DF10D01202203F8012F8B42FBD12D4B9D
S21440049098470135236813F0010FFBD00E2D37D057
S2144004A0B84704AB2B4403F8100C3C216846B047D1
S2144004B080463E216846B047B8F1000FE9D0012D8E
S2144004C00FDD9DF800303C2B0BD004AB3C2203F8EC
S2144004D0102D0DF10D01202203F8012F8B42FBD188
S2144004E000250028D5D01B496846DFF87080C047F5
S2144004F0814619496846C0478046B9F1000FB8D1D1
S214400500B8F1000FBAD0012111200B4B9847B5E740
S214400510B8470DF1100808F8100D3C214046B0478A
S21440052005463E214046B047002DB2D00025D8E7CC
S21440053059034000C50140009D024000E1024000D2
S2144005406C0D4000BD03400014060E403D034000C5
S214400550B1054000840D4000880D40004909400028
S21440056070B50F4E0F4D761BB61018BF002405D041
S214400570013455F8043B9847A642F9D10A4E0B4D34
S21440058000F00CFD761BB61018BF002406D00134D0
S21440059055F8043B9847A642F9D170BD70BD00BFE0
S2144005A0A80F4000A80F4000B00F4000A80F400022
S2144005B0C9B2002941D08207F0B467D00378002B37
S2144005C068D0994237D0431C04E013F8010B90B32F
S2144005D081422FD09A071C46F7D1256841EA01236D
S2144005E043EA034383EA0506A6F10130A5F101324A
S2144005F020EA060022EA0502024312F0803F11D1AB
S214400600204650F8046F83EA0607A7F10135A6F1A5
S214400610013225EA070522EA06022A4312F0803F05
S214400620EFD00446207818B905E014F8010F10B151
S2144006308142FAD12046F0BC7047830724D0037825
S214400640002BF9D0431C03E002780133002AF3D094
S21440065099071846F8D11968A1F1013222EA010239
S21440066012F0803F08D153F8041FA1F1013222EA6C
S214400670010212F0803FF6D01A78184642B110F8C0
S214400680013F002BFBD170470346E4E70446A4E74E
S214400690184670471846CEE72DE9F0414FF0010E58
S2144006A0002574464FF0FF362B198B4200EB0607A9
S2144006B00DD23F5D10F803C0BC452DD21D46012427
S2144006C0A3EB060E2B198B4200EB0607F1D34FF037
S2144006D00108002544464FF0FF37C2F800E02B19CA
S2144006E0994200EB070E0ED91EF804E010F803C03E
S2144006F0F44518D91D460124A3EB07082B19994247
S21440070000EB070EF0D80137701C874224BF3846EE
S214400710C2F80080BDE8F0810CD04FF0010E2E46A6
S21440072074467544C0E70BD04FF001082F46444648
S2144007304544D4E7744512BF01341D460124B3E74F
S214400740444512BF01341D460124C8E72DE9F04F49
S214400750ADF2144D164605468B461046194603AA7A
S2144007601C46FFF799FF814603AB0DF20C4243F857
S214400770044F9342FBD14CB1631E721E04A812F87C
S214400780011F40F8213013F1FF33F8D203994A464F
S2144007903144304600F058FA00286FD109F1FF3353
S2144007A00093F318824601932346804654465846A3
S2144007B09A4608EB0A073A1A0021284400F0FEF948
S2144007C0002856D1002F54D0EB1913F8012C04AB57
S2144007D053F822304BB124B1039A934201D2AAEB8C
S2144007E00203984400243846E3E74C45234638BF86
S2144007F04B460AF1FF3E734513D208EB0302A85C52
S21440080016F803C02A44844506EB030106D02CE0C4
S21440081011F801CF12F8010F844526D101337345F4
S214400820F6D34C45009980F08980009B08EB030284
S214400830019BA85C1B782A4498427FD1019804F11A
S214400840FF3B06E010F801CD12F801EDF44503D168
S21440085019464B1E9B45F5D101348C4270D8039CFB
S2144008603846A044AAEB0404A3E7C9F10102904429
S214400870B7E700200DF2144DBDE8F08FA4EB090356
S2144008804B4538BF4B4609F1FF380133039306EB1F
S214400890080358464FF0000ACB4699460AEB040731
S2144008A03A1A0021284400F089F90028E1D1002FA7
S2144008B0DFD0EB1913F8012C04AB53F82230A3BB5E
S2144008C0601E834515D20AEB0B0215F802E016F8B7
S2144008D00B302A449E4506EB0B015B4606D027E0CC
S2144008E011F801CF12F801EFF44521D101338342CC
S2144008F0F6D3B8F1FF3F11D00AEB0802AB5C99F88B
S21440090000102A4499420FD14B4605E013F8010DDA
S21440091012F8011D884207D1B342F7D105EB0A0011
S2144009200DF2144DBDE8F08F039B9A443846B5E768
S214400930CBF1010292449A443846AFE749468BE7EA
S21440094005EB080096E700BF0278002A00F0018118
S2144009502DE9F04F91F8008085B04446B8F1000F7D
S21440096016D0864601F1010C012704E0634613F8D1
S214400970014B64B19C46A24214BF002707F0010712
S2144009801EF8012F002AF1D19CF80030FBB917B1B0
S21440099005B0BDE8F08F0E46054641460130ACEB4B
S2144009A00604FFF705FE074688B1012CF0D028194B
S2144009B087428CBF0121C11B1F2C8B460BD9234677
S2144009C032463846FFF7C2FE05B0BDE8F08F00203D
S2144009D005B0BDE8F08F03AA21463046FFF75CFE1F
S2144009E00399804602463144304600F02DF90028EF
S2144009F057D181460546B246584608F1FF33009324
S214400A00F31801936619321A0021384400F0D6F8DC
S214400A100028DCD1002EDAD0C845434638BF4B46C6
S214400A209C4212D95A19B95C1AF803003A448842D3
S214400A300AEB030E06D02CE01EF8010F12F8011F39
S214400A40884226D101339C42F6D1C845009940F2EF
S214400A508380009BEA18019BB85C1B783A44984216
S214400A607AD1019809F1FF3B06E010F801CD12F863
S214400A7001EDF44503D119464B1E5B45F5D109F10E
S214400A800109894557D8039B30461D44A4EB03090A
S214400A90B8E7C8F1010215441D444FF0000930463E
S214400AA0B0E7A4EB0803434538BF434608F1FF3997
S214400AB00133039306EB090358460025BB469A4686
S214400AC067193A1A0021584400F078F800287FF455
S214400AD07EAF002F3FF47BAF444515D908EB0502A7
S214400AE01BF8020016F808305A44984206EB0801F4
S214400AF0434606D023E011F801EF12F8010F864571
S214400B001DD101339C42F6D1B9F1FF3F12D005EB1F
S214400B1009021BF802109AF800305A44994214D140
S214400B20534605E013F8010D12F8011D88420CD11A
S214400B30B342F7D15F46781905B0BDE8F08FC8F1EB
S214400B40010215441D443846BAE7039B38461D4407
S214400B50B6E70B7813B97047414690E700207047D8
S214400B60024B13B1024800F005B870470000000081
S214400B70810B4000002301461A46184600F094B800
S214400B8038B50A4C0A4D641BA4100AD004F18043C1
S214400B90013B05EB8305013C55F804399847002C8A
S214400BA0F9D1BDE8384000F003BA00BFC00F40009E
S214400BB0BC0F4000704700BF704700BF830770B44B
S214400BC0CDB23DD0541E0AB30378AB421FD0431C6F
S214400BD005E014F1FF3419D30278AA4217D013F077
S214400BE0030F184603F10103F3D1032C11D84CB37D
S214400BF00378AB420BD00444431C02E00278AA427E
S214400C0005D09C42184603F10103F7D1002070BC82
S214400C107047090289B2294341EA01410368064602
S214400C204B40A3F1013222EA030313F0803F00F168
S214400C30040003D1043C032CF0D8D8E73046D7E76D
S214400C401446D2E72046E2E7032A70B422D940EAA7
S214400C5001039B0711D003780C78A3421DD10A44A8
S214400C60013105E010F8013F11F8014BA34214D1C1
S214400C709142F7D1002070BC70470D6806680C465C
S214400C80AE42034601F1040100F1040008D1043AE3
S214400C90032AF2D8002ADED1ECE7181B70BC704756
S214400CA021461846D7E700BF2DE9F8432C4D0646A7
S214400CB0286898460F469146FFF77CFF294B1C68EC
S214400CC0D4F84831002B3ED05A681F2A1CDC02F16B
S214400CD0010E76B1012103EB8204C4F88890D3F864
S214400CE0880191400843022EC3F88801C4F8088161
S214400CF023D00232C3F804E0286843F82270FFF796
S214400D005BFF0020BDE8F883174B0BB34FF4C87069
S214400D10AFF300800346D8B10020D4F848114FF016
S214400D20010E586019600246C4F84831C3F888017D
S214400D30C3F88C01002EDCD0CCE7D3F88C010143FD
S214400D40C3F88C11D5E704F5A673C4F84831BBE761
S214400D502868FFF731FF4FF0FF30BDE8F88300BF4B
S214400D6030040020980F4000000000002020202083
S214400D7020202020202020202020200008010000C5
S214400D80010100006F6E00006F6666000A2020209A
S214400D9020202020203C703E4C454420436F6E74FB
S214400DA0726F6C3A3C2F703E0A2020202020202074
S214400DB0203C666F726D20616374696F6E3D226F72
S214400DC06E223E0A20202020202020202020202086
S214400DD03C696E70757420747970653D22737562D7
S214400DE06D6974222076616C75653D225475726E0D
S214400DF020746865204C4544206F6E2122202F3E8B
S214400E000A20202020202020203C2F666F726D3E36
S214400E100A20202020202020203C666F726D206112
S214400E206374696F6E3D226F6666223E0A202020FC
S214400E30202020202020202020202020203C696EBA
S214400E4070757420747970653D227375626D69742F
S214400E50222076616C75653D225475726E207468EA
S214400E6065204C4544206F66662122202F3E0A208E
S214400E70202020202020203C2F666F726D3E0A20C6
S214400E802020203C2F626F64793E0A3C2F68746DA8
S214400E906C3E0A003C21444F4354595045206874E8
S214400EA06D6C3E3C68746D6C3E0A202020203C6889
S214400EB06561643E0A20202020202020203C746962
S214400EC0746C653E453135352057656220536572F2
S214400ED07665722044656D6F205765627061676500
S214400EE03C2F7469746C653E0A2020202020202008
S214400EF0203C6D65746120687474702D65717569E9
S214400F00763D22726566726573682220636F6E74E2
S214400F10656E743D22313230223E0A202020203C2D
S214400F202F686561643E0A202020203C626F647909
S214400F303E0A20202020202020203C68313E45319B
S214400F403535205765622053657276657220446554
S214400F506D6F20576562706167653C2F68313E0A49
S214400F6020202020202020203C703E437572726551
S214400F706E74204D6963726F636F6E74726F6C6CC3
S214400F8065722054696D653A3C2F703E0A202020D9
S214400F90202020202000000008000020F8B500BFD8
S214400FA0F8BC08BC9E467047610B4000F10040000C
S214400FB0F8B500BFF8BC08BC9E467047CD00400060
S214400FC0940E40008C0D400000000000F40200200B
S214400FD05C030020C4030020000000000000000066
S214400FE000000000000000000000000000000000BC
S214400FF000000000000000000000000000000000AC
S214401000000000000000000000000000000000009B
S214401010000000000000000000000000000000008B
S214401020000000000000000000000000000000007B
S214401030000000000000000000000000000000006B
S214401040000000000000000000000000000000005B
S214401050000000000000000000000000000000004B
S214401060000000000000000000000000000000003B
S21440107001000000000000000E33CDAB34126DE6D8
S214401080ECDE05000B000000000000000000000041
S214401090000000000000000000000000000000000B
S2144010A000000000000000000000000000000000FB
S2144010B000000000000000000000000000000000EB
S2144010C000000000000000000000000000000000DB
S2084013F05004002040
S804400000BB
