S00C0000746573742E7372656358
S21440000068250020E1024000DF024000DF02400099
S214400010DF024000DF024000DF0240000000000038
S214400020000000000000000000000000DF0240006A
S214400030DF02400000000000DF024000DF02400018
S214400040DF024000DF024000DF024000DF024000E7
S214400050DF024000DF024000DF024000DF024000D7
S214400060DF024000DF024000DF024000DF024000C7
S214400070DF024000DF024000DF024000DF024000B7
S214400080DF024000DF024000DF024000DF024000A7
S214400090DF024000DF024000DF024000DF02400097
S2144000A0DF024000DF024000DF024000DF02400087
S2144000B0DF024000DF024000DF024000DF02400077
S2144000C0DF024000DF024000DF024000DF02400067
S2144000D010B5054C237833B9044B13B10448AFF33D
S2144000E000800123237010BD24050020000000007E
S2144000F0840640000C4B43B10C4810B50C49AFF396
S21440010000800C48036823B910BD0A48036833B919
S2144001107047094B002BF7D0BDE810401847064BF8
S214400120002BF5D0184700BF0000000084064000B2
S21440013028050020840640000000000010B50E4848
S2144001400E4B98473E2100200D4B98470D4CA0473C
S2144001500028FCD00C4B98470C4A0D4B9A620D4C2D
S214400160A0470028FCD010200B4B98470B4B9847D5
S2144001700148024B984710BD0090D003AD000020C8
S214400180050240005902400069024000033F1F201C
S21440019000040E4079024000A1014000790340006F
S2144001A0174A136B23F0700318431063936E13F0D3
S2144001B0080F0AD14FF4006311498A6E12F0080FF7
S2144001C003D1013BF9D1012070470D4A136B23F050
S2144001D0030343F002031363936E13F0080F0AD130
S2144001E04FF4006306498A6E12F0080F05D1013BB2
S2144001F0F9D101207047002070470020704700BFAB
S21440020000040E40C8B9114A136A090289B223F4A1
S2144002105C1323F0030343F45C1343F001030B43E6
S2144002201362936E13F0010FFBD0084A136A43F033
S2144002309B7343F480331362704704490B6A044A45
S2144002401A40044B13430B62704700BF00040E4035
S214400250FCFFC8FE02003701024B986E00F4803067
S214400260704700BF00040E404FF00052014B9A62A8
S214400270704700BF00040E40024B986E00F002002C
S214400280704700BF00040E4022281ED81F280CD8F6
S214400290114B9A6901238340934318D0012303FAF4
S2144002A000F00D4B18610020704720380A4BD3F8F9
S2144002B008210123834093430BD0012303FA00F027
S2144002C0054BC3F80001002070470120704700200E
S2144002D070470020704700BF00040E407047FEE79E
S2144002E008B51C4B1C4A9A4210D01C4B194A9A42DD
S2144002F00CD2013B9B1A23F00303043313441649E4
S21440030051F8040B42F8040B9A42F9D1144B154AA3
S2144003109A420AD2013B9B1A23F003030433134448
S214400320002142F8041B9342FBD10F4B23F060425E
S21440033022F07F020D498A6003F16043B3F5404FD7
S21440034003D28B6843F000538B60094B9847094BA8
S2144003509847FEE700000020840640002405002061
S21440036064050020240500200000400000ED00E069
S214400370ED044000890440003C4B1B6B03F0030334
S214400380032B0ED8DFE803F0021C3838384B5B6985
S21440039013F0800F14BF4FF400424FF4FA42354B2F
S2144003A01A60324B1B6B03F07003702B55D02F4BEB
S2144003B01A6B3049C2F302120B68D3400B60704789
S2144003C02A4B1B6A13F0807F03D02B4A294B1A60B6
S2144003D0E7E72A4A274B1A60244B1B6A03F0700350
S2144003E0102B05D0202BDCD1234A224B1A60D8E7AD
S2144003F0234A204B1A60D4E71C4B1B6A13F0807FBD
S21440040018D01D4A1B4B1A60184B1B6B03F0030396
S214400410022B164A07BF916A926AD16AD26A154879
S214400420C1F30A41036801FB0333D2B2B3FBF2F3D4
S2144004300360B6E7114A0F4B1A600C4B1B6A03F079
S2144004407003102B05D0202BDED10B4A094B1A60C7
S214400450DAE70B4A074B1A60D6E7064A136809499B
S214400460A1FB03135B081360704700BF00040E40F7
S21440047010140E40F0000020001BB70000093D009D
S21440048000127A00ABAAAAAA08B5114B9847114B9E
S21440049098474FF40042104B5A600B200F4CA04731
S2144004A00C20A0470E4B4FF080621A61C3F8A02084
S2144004B01A631C460B4E0C4DE36B13F0806F4FF0E7
S2144004C0806314BF636323633046A847F4E700BFE6
S2144004D03D014000DD02400050140E4089024000BD
S2144004E0000E0E4025C145000100002070B50F4E9D
S2144004F00F4D761BB61018BF002405D0013455F8B2
S214400500043B9847A642F9D10A4E0B4D00F0A8F896
S214400510761BB61018BF002406D0013455F8043BAD
S2144005209847A642F9D170BD70BD00BF6C0640002A
S2144005306C064000740640006C064000024B13B147
S214400540024800F005B87047000000005D05400016
S214400550002301461A46184600F01EB838B50A4C25
S2144005600A4D641BA4100AD004F18043013B05EBFE
S2144005708305013C55F804399847002CF9D1BDE86D
S214400580384000F077B800BF840640008006400040
S214400590704700BF704700BF2DE9F8432C4D064614
S2144005A0286898460F469146FFF7F2FF294B1C688D
S2144005B0D4F84831002B3ED05A681F2A1CDC02F182
S2144005C0010E76B1012103EB8204C4F88890D3F87B
S2144005D0880191400843022EC3F88801C4F8088178
S2144005E023D00232C3F804E0286843F82270FFF7AD
S2144005F0D1FF0020BDE8F883174B0BB34FF4C8700B
S214400600AFF300800346D8B10020D4F848114FF02D
S214400610010E586019600246C4F84831C3F8880194
S214400620C3F88C01002EDCD0CCE7D3F88C01014314
S214400630C3F88C11D5E704F5A673C4F84831BBE778
S2144006402868FFF7A7FF4FF0FF30BDE8F88300BFEC
S214400650200500205C06400000000000F800002056
S214400660F8B500BFF8BC08BC9E4670473D05400044
S214400670F5004000F8B500BFF8BC08BC9E46704781
S208400680D100400020
S214400684BFF35F8F0138FBD1704700004FF44072D0
S2144006941F4B1A60A3F5C0631B6A13F0807F07D113
S2144006A41C4A1D4B1A621A46936E13F0010FFBD078
S2144006B41A4A194B1A621A46936E13F4803FFBD0BB
S2144006C4154A136B23F0030343F001031363936E3D
S2144006D413F0080FFBD0124A0F4B9A621A46936ED9
S2144006E413F0020FFBD011220B4B1A631A46936E7B
S2144006F413F0080FFBD01222074B1A631A46936E68
S21440070413F0080FFBD0074A074B1A60704700BF28
S214400714000A0E400908370000040E400908370155
S214400724033F1F200090D003F00000200C4B98425B
S2144007340CD90C4B98420DD90B4B984294BF4FF4AE
S21440074400724FF44072094B1A6070470022074B00
S2144007541A6070474FF48072044B1A60704700BFAB
S2144007643F6603017FC3C9017FF93703000A0E4081
S21440077400093D000000000000000000E4030020E3
S2144007844C040020B40400200000000000000000D8
S2144007940000000000000000000000000000000010
S2144007A40000000000000000000000000000000000
S2144007B400000000000000000000000000000000F0
S2144007C400000000000000000000000000000000E0
S2144007D400000000000000000000000000000000D0
S2144007E400000000000000000000000000000000C0
S2144007F400000000000000000000000000000000B0
S214400804000000000000000000000000000000009F
S214400814000000000000000000000000000000008F
S21440082401000000000000000E33CDAB34126DE62C
S214400834ECDE05000B000000000000000000000095
S214400844000000000000000000000000000000005F
S214400854000000000000000000000000000000004F
S214400864000000000000000000000000000000003F
S214400874000000000000000000000000000000002F
S208400BA440050020A3
S8044002E1D8
