S0180000476363426F61726450726F6A656374312E737265630F
S21440000080340020DD024000D9024000D902400082
S214400010D9024000D9024000D9024000000000004A
S214400020000000000000000000000000D902400070
S214400030D902400000000000D9024000D90240002A
S214400040D9024000D9024000D9024000D9024000FF
S214400050D9024000D9024000D9024000000000000A
S214400060D9024000D902400000000000D9024000FA
S214400070D902400000000000D9024000D9024000EA
S2144000800000000000000000D9024000D9024000F5
S214400090D9024000D9024000D9024000D9024000AF
S2144000A0D9024000D90240000000000000000000D5
S2144000B000000000D9024000D9024000D9024000AA
S2144000C0D9024000D9024000D902400010B5054C84
S2144000D0237833B9044B13B10448AFF300800123AF
S2144000E0237010BD3C0400200000000000074000C4
S2144000F00C4B43B10C480D4910B5AFF300800C488B
S214400100036823B910BD0A48036833B97047094BE2
S214400110002BF7D0BDE810401847064B002BF5D013
S214400120184700BF000000000007400040040020C1
S214400130000740000000000010B50E480E4B9847E0
S2144001403E2100200D4B98470D4CA0470028FCD080
S2144001500C4B98470C4A0D4B9A620D4CA047002812
S214400160FCD010200B4B98470B4B98470148024B4E
S214400170984710BD000E2707990440000102400032
S2144001805502400065024000013F132000040E4027
S214400190750240009D01400089034000174A136BDA
S2144001A023F0700318431063936E13F0080F0AD1C0
S2144001B04FF4006311498A6E12F0080F03D1013BD9
S2144001C0F9D1012070470D4A136B23F0030343F027
S2144001D002031363936E13F0080F0AD14FF40063C3
S2144001E006498A6E12F0080F05D1013BF9D101206D
S2144001F07047002070470020704700BF00040E4044
S214400200C8B9114A136A090289B223F45C1323F071
S214400210030343F45C1343F001030B431362936EF2
S21440022013F0010FFBD0084A136A43F09B7343F464
S21440023080331362704704490B6A044A1A40044BE1
S21440024013430B62704700BF00040E40FCFFC8FE1D
S21440025002003701024B986E00F48030704700BFB2
S21440026000040E404FF00052014B9A62704700BFA8
S21440027000040E40024B986E00F00200704700BF2C
S21440028000040E4022281ED81F280CD8114B9A690D
S21440029001238340934318D0012303FA00F00D4B0B
S2144002A018610020704720380A4BD3F808210123F4
S2144002B0834093430BD0012303FA00F0054BC3F869
S2144002C00001002070470120704700207047002042
S2144002D0704700BF00040E40FEE7000008B5214B03
S2144002E0214A9A4228D9214B1E4A9A420CD2013BB7
S2144002F09B1A23F00303043313441B4951F8040BA1
S21440030042F8040B9A42F9D100BF194B194A9A4257
S2144003100AD2013B9B1A23F0030304331344002103
S21440032042F8041B9A42FBD1134B144A9A60144B72
S2144003309847144B9847FEE70A4B0B4A9A42E3D23B
S2144003400A4B0848181A1146043A02440028DBD0E3
S214400350C1F1040152F8040943F8040DCA42F9D128
S214400360D2E700BF00000020000740003C04002009
S2144003707C0400203C04002000ED00E0000040002B
S214400380690540000D0540003C4B1B6B03F0030322
S214400390032B0ED8DFE803F0021C3838384B5B6975
S2144003A013F0800F14BF4FF400424FF4FA42354B1F
S2144003B01A60324B1B6B03F07003702B55D02F4BDB
S2144003C01A6B3049C2F302120B68D3400B60704779
S2144003D02A4B1B6A13F0807F03D02B4A294B1A60A6
S2144003E0E7E72A4A274B1A60244B1B6A03F0700340
S2144003F0102B05D0202BDCD1234A224B1A60D8E79D
S214400400234A204B1A60D4E71C4B1B6A13F0807FAC
S21440041018D01D4A1B4B1A60184B1B6B03F0030386
S214400420022B164A07BF916A926AD16AD26A154869
S214400430C1F30A41036801FB0333D2B2B3FBF2F3C4
S2144004400360B6E7114A0F4B1A600C4B1B6A03F069
S2144004507003102B05D0202BDED10B4A094B1A60B7
S214400460DAE70B4A074B1A60D6E7064A136809498B
S214400470A1FB03135B081360704700BF00040E40E7
S21440048010140E400C000020001BB70000093D0071
S21440049000127A00ABAAAAAA124B984211D9124B64
S2144004A0984213D9114B984214D9114B984215D9FA
S2144004B0104B984294BF4FF004220F4A0F4B1A60DD
S2144004C070474FF080620D4B1A6070470C4A0B4BDA
S2144004D01A6070470B4A094B1A6070470A4A074B26
S2144004E01A607047FF2C3101FF596202FF86930362
S2144004F0FFB3C404FFE0F50500050004000A0E4003
S21440050000010004000200040003000408B5104B7C
S21440051098474FF400420F4B5A600B200E4CA047B2
S2144005200C20A0470D4B4FF480321A61C3F8A02030
S2144005301A631C460A4E0B4DE36B13F4803F4FF490
S214400540803314BF636323633046A847F4E700BF95
S2144005503901400050140E4085024000000E0E4007
S21440056025CA82000100002070B50F4E0F4D761B45
S214400570B61018BF002405D0013455F8043B984700
S214400580A642F9D10A4E0B4D761B00F0A7F8B610DE
S21440059018BF002406D0013455F8043B9847A642BD
S2144005A0F9D170BD70BD00BFE8064000E8064000C7
S2144005B0F0064000E8064000024B13B1024800F047
S2144005C005B8704700000000D905400000230146EA
S2144005D01A46184600F01EB838B50A4C0A4D641B39
S2144005E0A4100AD004F18043013B05EB8305013C8F
S2144005F055F804399847002CF9D1BDE8384000F04A
S21440060077B800BF00074000FC064000704700BFB8
S214400610704700BF2DE9F8432C4D0646286898469B
S2144006200F469146FFF7F2FF294B1C68D4F8483135
S214400630002B3ED05A681F2A1CDC02F1010E76B110
S21440064003EB82010124C1F88890D3F888019440D6
S2144006502043022EC3F88801C1F8088123D0023215
S214400660C3F804E0286843F82270FFF7D1FF002063
S214400670BDE8F883174B0BB34FF4C870AFF3008058
S2144006800346D8B1D4F848210260002141600A46AA
S214400690C4F848014FF0010EC0F88811C0F88C111C
S2144006A0002EDCD0CCE7D3F88C110C43C3F88C4139
S2144006B0D5E704F5A673C4F84831BBE72868FFF7CA
S2144006C0A7FF4FF0FF30BDE8F88300BF3804002096
S2144006D0D80640000000000010000020F8B500BF1B
S2144006E0F8BC08BC9E467047B9054000F100400083
S2144006F0F8B500BFF8BC08BC9E467047CD00400029
S214400700BFF35F8F0138FBD17047000000093D0002
S21440071000000000FC02002064030020CC03002000
S2144007200000000000000000000000000000000084
S2144007300000000000000000000000000000000074
S2144007400000000000000000000000000000000064
S2144007500000000000000000000000000000000054
S2144007600000000000000000000000000000000044
S2144007700000000000000000000000000000000034
S2144007800000000000000000000000000000000024
S2144007900000000000000000000000000000000014
S2144007A00000000000000000000000000000000004
S2144007B000000000000000000100000000000000F3
S2144007C00E33CDAB34126DE6ECDE05000B000000B8
S2144007D000000000000000000000000000000000D4
S2144007E000000000000000000000000000000000C4
S2144007F000000000000000000000000000000000B4
S21440080000000000000000000000000000000000A3
S210400B30000000000000000058040020F8
S8044002DDDC
