S01700004763634170706C69636174696F6E312E737265635B
S214400000700800203D0140003901400039014000A1
S214400010390140003901400039014000000000002D
S2144000200000000000000000000000003901400011
S214400030390140000000000039014000390140000D
S2144000403901400039014000390140003901400083
S21440005039014000390140003901400000000000ED
S21440006039014000390140000000000039014000DD
S21440007039014000000000003901400039014000CD
S2144000800000000000000000390140003901400037
S2144000903901400039014000390140003901400033
S2144000A03901400039014000000000000000000017
S2144000B0000000003901400039014000390140008D
S2144000C039014000390140003901400010B5054C67
S2144000D0237833B9044B13B10448AFF300800123AF
S2144000E0237010BD2C04002000000000B803400020
S2144000F00C4B43B10C480D4910B5AFF300800C488B
S214400100036823B910BD0A48036833B97047094BE2
S214400110002BF7D0BDE810401847064B002BF5D013
S214400120184700BF00000000B8034000300400201D
S214400130B803400000000000FEE7000008B5174B7B
S214400140174A9A4210D0174B144A9A420CD2013B97
S2144001509B1A23F0030304331344114951F8040B4C
S21440016042F8040B9A42F9D10F4B104A9A420AD2EF
S214400170013B9B1A23F0030304331344002142F847
S214400180041B9342FBD10A4A0A4B23F07F03936039
S214400190094B9847094B9847FEE700BF00000020F0
S2144001A0B80340002C0400206C0400202C040020DF
S2144001B000ED00E00000400021024000C101400088
S2144001C002220F4B1A600F4A0F4B1A604FF4006220
S2144001D0D43B1A600D4A03F6D4231A604FF480636A
S2144001E00B4A1360A0321360903A13600022094B0A
S2144001F01A6009494FF48063084A0B601360FCE7B5
S2144002000800002000434D50E4040E40004F495083
S214400210000E0E40380E0E40340E0E40300E0E408D
S21440022070B50F4E0F4D761BB61018BF002405D084
S214400230013455F8043B9847A642F9D10A4E0B4D77
S214400240761B00F0A7F8B61018BF002406D001347D
S21440025055F8043B9847A642F9D170BD70BD00BF23
S214400260A0034000A0034000A8034000A0034000B5
S214400270024B13B1024800F005B87047000000007A
S21440028091024000002301461A46184600F01EB868
S21440029038B50A4C0A4D641BA4100AD004F18043BA
S2144002A0013B05EB8305013C55F804399847002C83
S2144002B0F9D1BDE8384000F077B800BFB803400039
S2144002C0B4034000704700BF704700BF2DE9F843B5
S2144002D02C4D0646286898460F469146FFF7F2FF93
S2144002E0294B1C68D4F84831002B3ED05A681F2A48
S2144002F01CDC02F1010E76B103EB82010124C1F849
S2144003008890D3F8880194402043022EC3F8880191
S214400310C1F8088123D00232C3F804E0286843F8C5
S2144003202270FFF7D1FF0020BDE8F883174B0BB3D0
S2144003304FF4C870AFF300800346D8B1D4F84821D4
S2144003400260002141600A46C4F848014FF0010EA1
S214400350C0F88811C0F88C11002EDCD0CCE7D3F85A
S2144003608C110C43C3F88C41D5E704F5A673C4F84A
S2144003704831BBE72868FFF7A7FF4FF0FF30BDE8DE
S214400380F88300BF280400209003400000000000CF
S21440039000000020F8B500BFF8BC08BC9E46704779
S2144003A071024000F1004000F8B500BFF8BC08BC40
S20C4003B09E467047CD00400058
S2144003B800000000EC02002054030020BC0300208C
S2144003C800000000000000000000000000000000E0
S2144003D800000000000000000000000000000000D0
S2144003E800000000000000000000000000000000C0
S2144003F800000000000000000000000000000000B0
S214400408000000000000000000000000000000009F
S214400418000000000000000000000000000000008F
S214400428000000000000000000000000000000007F
S214400438000000000000000000000000000000006F
S214400448000000000000000000000000000000005F
S214400458000000000000000001000000000000004E
S2144004680E33CDAB34126DE6ECDE05000B00000013
S214400478000000000000000000000000000000002F
S214400488000000000000000000000000000000001F
S214400498000000000000000000000000000000000F
S2144004A800000000000000000000000000000000FF
S2104007D800000000000000004804002064
S804400000BB
