S01D000073616D5F6261636B656E645F6F6C646865616465722E7372656398
S214400000780800203D014000390140003901400099
S214400010390140003901400039014000000000002D
S2144000200000000000000000000000003901400011
S214400030390140000000000039014000390140000D
S2144000403901400039014000390140003901400083
S21440005039014000390140003901400000000000ED
S21440006039014000390140000000000039014000DD
S21440007039014000000000003901400039014000CD
S2144000800000000000000000390140003901400037
S2144000903901400039014000390140003901400033
S2144000A03901400039014000000000000000000017
S2144000B0000000003901400039014000390140008D
S2144000C039014000390140003901400010B5054C67
S2144000D0237833B9044B13B10448AFF300800123AF
S2144000E0237010BD3404002000000000401E400075
S2144000F00C4B43B10C4810B50C49AFF300800C488C
S214400100036823B910BD0A48036833B97047094BE2
S214400110002BF7D0BDE810401847064B002BF5D013
S214400120184700BF00000000401E40003804002072
S214400130401E400000000000FEE7000008B5184BD7
S214400140184A9A4210D0184B154A9A420CD2013B94
S2144001509B1A23F0030304331344124951F8040B4B
S21440016042F8040B9A42F9D1104B114A9A420AD2ED
S214400170013B9B1A23F0030304331344002142F847
S214400180041B9342FBD10B4B23F0604323F07F03C9
S214400190094A9360094B9847094B9847FEE700BFCA
S2144001A000000020401E400034040020740400205C
S2144001B0340400200000400000ED00E00D14400034
S2144001C0C505400010B44411324A334B002C08BFDA
S2144001D013461C46424200F01F0002F01F0258BF62
S2144001E050420139062953D8DFE801F0040B19279D
S2144001F035424C001969012202FA00F008431861A2
S21440020046E05968012202FA00F0014359601A6F2D
S214400210C04302401A675A6F1040586738E0596822
S214400220012202FA00F0014359601A6F02431A672E
S2144002305A6F22EA000058672AE05968012202FAFB
S21440024000F0014359601A6F22EA00021A675A6F9B
S214400250104358671CE05968012202FA00F0014337
S21440026059601A6F02431A675A6F104358670FE077
S214400270196E0122824011431966D3F894100A433E
S214400280C3F89420226E012303FA00F01043206640
S21440029010BC7047000E0E4000100E4010B44411C3
S2144002A00D4A0E4B002C08BF1346424200F01F007A
S2144002B002F01F0258BF504239B9596B012202FA68
S2144002C000F00843586310BC7047196B012202FACD
S2144002D000F008431863F6E7000E0E4000100E408C
S2144002E070B506460D46022109200A4CA047022159
S2144002F00A20A047084B1A6842F040021A601A6863
S21440030042F010021A605A6866F34B225A601D6229
S21440031070BD00BFC501400000060E40034A536949
S21440032013F0020FFBD0014BD861704700060E4019
S214400330044A536913F0010FFBD0024B9869C0B2D0
S214400340704700BF00060E4070B505460C46164680
S21440035009280AD8DFE800F0052E33383D42474CDE
S2144003605156052111202A4B98472A4B19690122DC
S214400370AA400A431A61986C690004FA01F20243E3
S2144003809A649A6CE44304F003048C4022EA040422
S2144003909C64D96C06FA05F20A43DA64DA6C16F005
S2144003A0010F0CBF0121002101FA05F522EA0505DF
S2144003B0DD6470BD05211220154B9847D5E7052111
S2144003C01320134B9847D0E705211420104B98472D
S2144003D0CBE7052120200E4B9847C6E70521212074
S2144003E00B4B9847C1E705212220094B9847BCE7AD
S2144003F005212320064B9847B7E705211520044BD7
S2144004009847B2E705211620014B9847ADE700BF55
S214400410C50140000080034070B5194A136843F098
S214400420020313600122824015490B6B1342FCD035
S214400430134B143053F820005B68C3F3001340F6A8
S214400440FF7240F2FF34002B08BF14460D4DA847FC
S21440045006462046A847014630460B4B98470B4B6E
S214400460984705A3D3E90023094CA047094B984772
S21440047070BD00BFAFF300806666666666660A407B
S21440048000800340C5104000D5124000E5094000FA
S2144004908D0A4000B10E40001D4B1E4AC3F8E420B2
S2144004A0A2F57D321C49C1F8E42001F50071C1F87F
S2144004B0E4201A491A4AC2F8E4101A4A1A49C1F8FE
S2144004C0E42001F58041C1F8E4201849184AC2F8F2
S2144004D0E410184902F5C032C2F8E4104FF48072B6
S2144004E01A614FF400621A614FF480521A614FF459
S2144004F000121A614FF400021A614FF080721A61BE
S2144005004FF000421A614FF000521A61704700BF28
S21440051000040E4000434D50000E0E40004950531C
S21440052000800040004D495400000140004D5750A7
S2144005300000024000434441F0B583B00021122041
S2144005401C4B984700241C4D1C4E0D2702E00134DE
S214400550D72C09D02B68185DB0472B681B5D0A2B3B
S214400560F5D13846B047F2E70220154B98476C461F
S2144005700DF10506114D14F8010BA847B442FAD107
S21440058000240D4D0D4E0D2703E00134B4F5847F55
S21440059009D06B68185DB0476B681B5D0A2BF4D1B9
S2144005A03846B047F1E701211220024B984703B086
S2144005B0F0BD00BF9D024000000000201D0340002B
S2144005C0190440002DE9F04385B0464B9847012179
S2144005D01120454DA84701211120444CA047012138
S2144005E01220A84701211220A04719210420404B81
S2144005F09847404B5A686FF304125A605A6842F460
S21440060000025A600022114602203B4B98473B4B63
S2144006106C460FCB07C42380394B98470025394C8E
S214400620394F3A4E10E000211120304B984741E0B8
S2144006300DF1FF330DF10D01202203F8012F8B42FF
S214400640FBD12F4B98470135636913F0010FFBD060
S2144006500E2D37D0B84704AB2B4403F8100C3C2182
S2144006606846B04780463E216846B047B8F1000F1E
S214400670E9D0012D0FDD9DF800303C2B0BD004ABAC
S2144006803C2203F8102D0DF10D01202203F8012F16
S2144006908B42FBD100250028D5D01D496846DFF89F
S2144006A07880C04781461B496846C0478046B9F1B6
S2144006B0000FB8D1B8F1000FBAD0012111200B4B72
S2144006C09847B5E7B8470DF1100808F8100D3C21DB
S2144006D04046B04705463E214046B047002DB2D082
S2144006E00025D8E799044000C50140009D0240001F
S2144006F0E10240000080034049034000181C4000CF
S2144007003905400000060E40310340005D144000AD
S214400710301C4000341C4000F517400081F000417A
S21440072002E000BF83F0004330B54FEA41044FEA91
S214400730430594EA050F08BF90EA020F1FBF54EA2C
S214400740000C55EA020C7FEA645C7FEA655C00F0C8
S214400750E2804FEA5454D4EB5555B8BF6D420CDD99
S2144007602C4480EA020281EA030382EA000083EA1C
S214400770010180EA020281EA0303362D88BF30BDBC
S21440078011F0004F4FEA01314FF4801C4CEA113112
S21440079002D0404261EB410113F0004F4FEA033371
S2144007A04CEA133302D0524263EB430394EA050FFC
S2144007B000F0A780A4F10104D5F1200E0DDB02FA6B
S2144007C00EFC22FA05F2801841F1000103FA0EF2FF
S2144007D0801843FA05F359410EE0A5F120050EF1C5
S2144007E0200E012A03FA0EFC28BF4CF0020C43FAF6
S2144007F005F3C01851EBE37101F0004507D54FF003
S214400800000EDCF1000C7EEB00006EEB0101B1F552
S214400810801F1BD3B1F5001F0CD349085FEA300098
S2144008204FEA3C0C04F101044FEA445212F5800FA3
S21440083080F09A80BCF1004F08BF5FEA500C50F140
S214400840000041EB045141EA050130BD5FEA4C0C23
S214400850404141EB010111F4801FA4F10104E9D1AC
S21440086091F0000F04BF01460020B1FA81F308BFA3
S2144008702033A3F10B03B3F120020CDA0C3208DD6F
S21440088002F1140CC2F10C0201FA0CF021FA02F14A
S2144008900CE002F11402D8BFC2F1200C01FA02F1BA
S2144008A020FA0CFCDCBF41EA0C019040E41AA2BFDF
S2144008B001EB0451294330BD6FEA04041F3C1CDAA7
S2144008C00C340EDC04F11404C4F1200220FA04F0C7
S2144008D001FA02F340EA030021FA04F345EA030171
S2144008E030BDC4F10C04C4F1200220FA02F001FA33
S2144008F004F340EA0300294630BD21FA04F02946B5
S21440090030BD94F0000F83F4801306BF81F480114D
S2144009100134013D4EE77FEA645C18BF7FEA655CC0
S21440092029D094EA050F08BF90EA020F05D054EA92
S214400930000C04BF1946104630BD91EA030F1EBF97
S2144009400021002030BD5FEA545C05D1400049419B
S21440095028BF41F0004130BD14F580043CBF01F58E
S214400960801130BD01F0004545F0FE4141F4700174
S2144009704FF0000030BD7FEA645C1ABF194610464F
S2144009807FEA655C1CBF0B46024650EA013406BF50
S21440099052EA033591EA030F41F4002130BD00BF0F
S2144009A090F0000F04BF0021704730B54FF48064CC
S2144009B004F132044FF000054FF0000150E700BF4D
S2144009C090F0000F04BF0021704730B54FF48064AC
S2144009D004F1320410F0004548BF40424FF0000199
S2144009E03EE700BF42004FEAE2014FEA31014FEADC
S2144009F002701FBF12F07F4393F07F4F81F060512B
S214400A00704792F0000F14BF93F07F4F704730B599
S214400A104FF4607401F0004521F0004120E700BF2C
S214400A2050EA010208BF704730B54FF000050AE0B3
S214400A3050EA010208BF704730B511F0004502D5B4
S214400A40404261EB41014FF4806404F132045FEAB6
S214400A50915C3FF4DCAE4FF003025FEADC0C18BF5B
S214400A6003325FEADC0C18BF033202EBDC02C2F151
S214400A70200300FA03FC20FA02F001FA03FE40EAE3
S214400A800E0021FA02F11444C1E600BF70B54FF0E3
S214400A90FF0C4CF4E06C1CEA11541DBF1CEA1355C5
S214400AA094EA0C0F95EA0C0F00F0DEF82C4481EA2D
S214400AB0030621EA4C5123EA4C5350EA013518BF4D
S214400AC052EA033541F4801143F4801338D0A0FB3A
S214400AD002CE4FF00005E1FB02E506F00042E0FBE7
S214400AE003E54FF00006E1FB03569CF0000F18BFED
S214400AF04EF0010EA4F1FF04B6F5007F64F5407495
S214400B0004D25FEA4E0E6D4146EB060642EAC62127
S214400B1041EA55514FEAC52040EA5E504FEACE2E94
S214400B20B4F1FD0C88BFBCF5E06F1ED8BEF1004F97
S214400B3008BF5FEA500E50F1000041EB045170BD13
S214400B4006F0004646EA010140EA020081EA030157
S214400B50B4EB5C04C2BFD4EB0C0541EA045170BD53
S214400B6041F480114FF0000E013C00F3AB8014F1CD
S214400B70360FDEBF002001F0004170BDC4F1000416
S214400B80203C35DA0C341BDC04F11404C4F1200597
S214400B9000FA05F320FA04F001FA05F240EA0200F2
S214400BA001F0004221F0004110EBD37021FA04F628
S214400BB042EB06015EEA430E08BF20EAD37070BDE2
S214400BC0C4F10C04C4F1200500FA04F320FA05F041
S214400BD001FA04F240EA020001F0004110EBD37043
S214400BE041F100015EEA430E08BF20EAD37070BDB3
S214400BF0C4F1200500FA05F24EEA020E20FA04F38C
S214400C0001FA05F243EA020321FA04F001F000413A
S214400C1021FA04F220EA020000EBD3705EEA430EAB
S214400C2008BF20EAD37070BD94F0000F0FD101F0DA
S214400C300046400041EB010111F4801F08BF013C13
S214400C40F7D041EA060195F0000F18BF704703F051
S214400C500046520043EB030313F4801F08BF013DD8
S214400C60F7D043EA0603704794EA0C0F0CEA135594
S214400C7018BF95EA0C0F0CD050EA410618BF52EA4E
S214400C804306D1D181EA030101F000414FF0000054
S214400C9070BD50EA410606BF1046194652EA430662
S214400CA019D094EA0C0F02D150EA013613D195EAD6
S214400CB00C0F05D152EA03361CBF104619460AD11E
S214400CC081EA030101F0004141F0FE4141F4700128
S214400CD04FF0000070BD41F0FE4141F4780170BD18
S214400CE070B54FF0FF0C4CF4E06C1CEA11541DBF7D
S214400CF01CEA135594EA0C0F95EA0C0F00F0A7F87F
S214400D00A4EB050481EA030E52EA03354FEA0131AB
S214400D1000F088804FEA03334FF0805545EA1313BE
S214400D2043EA12634FEA022245EA111545EA106586
S214400D304FEA00260EF000419D4208BF964244F11D
S214400D40FD0404F5407402D25B084FEA3202B61A3C
S214400D5065EB03055B084FEA32024FF480104FF410
S214400D60002CB6EB020E75EB030E22BFB61A754684
S214400D7040EA0C005B084FEA3202B6EB020E75EB17
S214400D80030E22BFB61A754640EA5C005B084FEA7F
S214400D903202B6EB020E75EB030E22BFB61A75464C
S214400DA040EA9C005B084FEA3202B6EB020E75EB57
S214400DB0030E22BFB61A754640EADC0055EA060E18
S214400DC018D04FEA051545EA16754FEA06164FEA5B
S214400DD0C30343EA52734FEAC2025FEA1C1CC0D107
S214400DE011F4801F0BD141EA00014FF000004FF094
S214400DF0004CB6E711F4801F04BF01430020B4F155
S214400E00FD0C88BFBCF5E06F3FF6AFAEB5EB030C0C
S214400E1004BFB6EB020C5FEA500C50F1000041EB09
S214400E20045170BD0EF0004E4EEA113114EB5C04D6
S214400E30C2BFD4EB0C0541EA045170BD41F48011A9
S214400E404FF0000E013C90E645EA060E8DE60CEAB1
S214400E50135594EA0C0F08BF95EA0C0F3FF43BAFCE
S214400E6094EA0C0F0AD150EA01347FF434AF95EA85
S214400E700C0F7FF425AF104619462CE795EA0C0F69
S214400E8006D152EA03353FF4FDAE1046194622E736
S214400E9050EA410618BF52EA43067FF4C5AE50EA10
S214400EA041047FF40DAF52EA43057FF4EBAE12E700
S214400EB04FEA4102B2F1E04324BFB3F5001CDCF137
S214400EC0FE5C0DD901F0004C4FEAC0024CEA50706F
S214400ED0B2F1004F40EB830008BF20F0010070479E
S214400EE011F0804F21D113F13872BCBF01F00040A1
S214400EF0704741F480114FEA5252C2F11802C2F1D3
S214400F00200C10FA0CF320FA02F018BF40F0010053
S214400F104FEAC1234FEAD32303FA0CFC40EA0C0005
S214400F2023FA02F34FEA4303CCE77FEA625307D142
S214400F3050EA01331EBF4FF0FE4040F44000704779
S214400F4001F0004040F0FE4040F40000704700BF13
S214400F5080F0004002E000BF81F0004142001FBF29
S214400F605FEA410392EA030F7FEA226C7FEA236C32
S214400F706AD04FEA1262D2EB1363C1BFD218414027
S214400F8048404140B8BF5B42192B88BF704710F0BD
S214400F90004F40F4000020F07F4018BF404211F060
S214400FA0004F41F4000121F07F4118BF494292EAC8
S214400FB0030F3FD0A2F1010241FA03FC10EB0C00F4
S214400FC0C3F1200301FA03F100F0004302D5494281
S214400FD060EB4000B0F5000F13D3B0F1807F06D32E
S214400FE040084FEA310102F10102FE2A51D2B1F126
S214400FF0004F40EBC25008BF20F0010040EA03001B
S2144010007047490040EB000010F4000FA2F10102C7
S214401010EDD1B0FA80FCACF1080CB2EB0C0200FA51
S2144010200CF0AABF00EBC25052421843BCBFD0409F
S2144010301843704792F0000F81F4000106BF80F419
S21440104000000132013BB5E74FEA41037FEA226CDC
S21440105018BF7FEA236C21D092EA030F04D092F0A7
S214401060000F08BF0846704790EA010F1CBF0020DB
S214401070704712F07F4F04D1400028BF40F0004038
S214401080704712F100723CBF00F50000704700F058
S214401090004343F0FE4040F4000070477FEA22627F
S2144010A016BF08467FEA23630146420206BF5FEA50
S2144010B0412390EA010F40F4800070474FF0000350
S2144010C004E000BF10F0004348BF40425FEA000C17
S2144010D008BF704743F0964301464FF000001CE0BF
S2144010E050EA010208BF70474FF000030AE000BF15
S2144010F050EA010208BF704711F0004302D5404253
S21440110061EB41015FEA010C02BF844601460020C4
S21440111043F0B64308BFA3F18053A3F50003BCFADF
S2144011208CF2083AA3EBC25310DB01FA02FC63448C
S21440113000FA02FCC2F12002BCF1004F20FA02F293
S21440114043EB020008BF20F00100704702F1200286
S21440115001FA02FCC2F1200250EA4C0021FA02F2E7
S21440116043EB020008BF20EADC7070474FF0FF0CEC
S2144011701CEAD0521EBF1CEAD15392EA0C0F93EAE7
S2144011800C0F6FD01A4480EA010C400218BF5FEA89
S21440119041211ED04FF0006343EA501043EA5111FC
S2144011A0A0FB01310CF00040B1F5000F3EBF4900F6
S2144011B041EAD3715B0040EA010062F17F02FD2AFA
S2144011C01DD8B3F1004F40EBC25008BF20F00100DD
S2144011D0704790F0000F0CF0004C08BF49024CEAF4
S2144011E0502040EA51207F3AC2BFD2F1FF0340EA86
S2144011F0C250704740F400004FF00003013A5DDCF7
S21440120012F1190FDCBF00F000407047C2F1000237
S214401210410021FA02F1C2F1200200FA02FC5FEA24
S214401220310040F1000053EA4C0308BF20EADC706E
S214401230704792F0000F00F0004C02BF400010F4E0
S214401240000F013AF9D040EA0C0093F0000F01F08D
S214401250004C02BF490011F4000F013BF9D041EAAF
S2144012600C018FE70CEAD15392EA0C0F18BF93EAB1
S2144012700C0F0AD030F0004C18BF31F0004CD8D1DB
S21440128080EA010000F00040704790F0000F17BF62
S21440129090F0004F084691F0000F91F0004F14D0A8
S2144012A092EA0C0F01D142020FD193EA0C0F03D100
S2144012B04B0218BF084608D180EA010000F0004003
S2144012C040F0FE4040F40000704740F0FE4040F4DE
S2144012D0400070474FF0FF0C1CEAD0521EBF1CEA7D
S2144012E0D15392EA0C0F93EA0C0F69D0A2EB03029B
S2144012F080EA010C49024FEA402037D04FF0805335
S21440130043EA111143EA10130CF000408B4238BFF9
S2144013105B0042F17D024FF4000C8B4224BF5B1A07
S21440132040EA0C00B3EB510F24BFA3EB510340EA55
S2144013305C00B3EB910F24BFA3EB910340EA9C0003
S214401340B3EBD10F24BFA3EBD10340EADC001B0173
S21440135018BF5FEA1C1CE0D1FD2A3FF650AF8B4217
S21440136040EBC25008BF20F0010070470CF0004C24
S2144013704CEA50207F32C2BFD2F1FF0340EAC2504F
S214401380704740F400004FF00003013A37E792F010
S214401390000F00F0004C02BF400010F4000F013A6E
S2144013A0F9D040EA0C0093F0000F01F0004C02BF69
S2144013B0490011F4000F013BF9D041EA0C0195E7D2
S2144013C00CEAD15392EA0C0F08D142027FF47DAF6B
S2144013D093EA0C0F7FF470AF084676E793EA0C0F5B
S2144013E004D14B023FF44CAF08466EE730F0004C59
S2144013F018BF31F0004CCAD130F000427FF45CAFE9
S21440140031F000437FF43CAF5FE700BF70B50F4E4E
S2144014100F4D761BB61018BF002405D0013455F882
S214401420043B9847A642F9D10A4E0B4D00F0F6FC15
S214401430761BB61018BF002406D0013455F8043B7E
S2144014409847A642F9D170BD70BD00BF281E400027
S214401450281E4000301E4000281E4000C9B2002909
S21440146041D08207F0B467D00378002B68D0994209
S21440147037D0431C04E013F8010B90B381422FD0C1
S2144014809A071C46F7D1256841EA012343EA0343FD
S21440149083EA0506A6F10130A5F1013220EA0600EE
S2144014A022EA0502024312F0803F11D1204650F84E
S2144014B0046F83EA0607A7F10135A6F1013225EA53
S2144014C0070522EA06022A4312F0803FEFD0044680
S2144014D0207818B905E014F8010F10B18142FAD10E
S2144014E02046F0BC7047830724D00378002BF9D001
S2144014F0431C03E002780133002AF3D099071846CC
S214401500F8D11968A1F1013222EA010212F0803FB7
S21440151008D153F8041FA1F1013222EA010212F069
S214401520803FF6D01A78184642B110F8013F002B9B
S214401530FBD170470346E4E70446A4E718467047E5
S2144015401846CEE72DE9F0414FF0010E00257446CF
S2144015504FF0FF362B198B4200EB06070DD23F5D4E
S21440156010F803C0BC452DD21D460124A3EB060E41
S2144015702B198B4200EB0607F1D34FF001080025EC
S21440158044464FF0FF37C2F800E02B19994200EB73
S214401590070E0ED91EF804E010F803C0F44518D91B
S2144015A01D460124A3EB07082B19994200EB070EB2
S2144015B0F0D80137701C874224BF3846C2F80080F6
S2144015C0BDE8F0810CD04FF0010E2E4674467544AF
S2144015D0C0E70BD04FF001082F4644464544D4E7B9
S2144015E0744512BF01341D460124B3E7444512BF7B
S2144015F001341D460124C8E72DE9F04FADF2144DE5
S214401600164605468B461046194603AA1C46FFF763
S21440161099FF814603AB0DF20C4243F8044F9342C8
S214401620FBD14CB1631E721E04A812F8011F40F88D
S214401630213013F1FF33F8D203994A4631443046FD
S21440164000F058FA00286FD109F1FF330093F318E1
S2144016508246019323468046544658469A4608EBAF
S2144016600A073A1A0021284400F0FEF9002856D10D
S214401670002F54D0EB1913F8012C04AB53F822304A
S2144016804BB124B1039A934201D2AAEB0203984489
S21440169000243846E3E74C45234638BF4B460AF11C
S2144016A0FF3E734513D208EB0302A85C16F803C04E
S2144016B02A44844506EB030106D02CE011F801CFFE
S2144016C012F8010F844526D101337345F6D34C45B5
S2144016D0009980F08980009B08EB0302019BA85C80
S2144016E01B782A4498427FD1019804F1FF3B06E0DC
S2144016F010F801CD12F801EDF44503D119464B1E02
S2144017009B45F5D101348C4270D8039C3846A044A2
S214401710AAEB0404A3E7C9F101029044B7E700200E
S2144017200DF2144DBDE8F08FA4EB09034B4538BFCE
S2144017304B4609F1FF380133039306EB080358463E
S2144017404FF0000ACB4699460AEB04073A1A0021A6
S214401750284400F089F90028E1D1002FDFD0EB19AA
S21440176013F8012C04AB53F82230A3BB601E83450C
S21440177015D20AEB0B0215F802E016F80B302A4495
S2144017809E4506EB0B015B4606D027E011F801CFDD
S21440179012F801EFF44521D101338342F6D3B8F174
S2144017A0FF3F11D00AEB0802AB5C99F800102A44C0
S2144017B099420FD14B4605E013F8010D12F8011D72
S2144017C0884207D1B342F7D105EB0A000DF2144D1B
S2144017D0BDE8F08F039B9A443846B5E7CBF101024B
S2144017E092449A443846AFE749468BE705EB0800F3
S2144017F096E700BF0278002A00F001812DE9F04FFD
S21440180091F8008085B04446B8F1000F16D0864661
S21440181001F1010C012704E0634613F8014B64B163
S2144018209C46A24214BF002707F001071EF8012F6E
S214401830002AF1D19CF80030FBB917B105B0BDE8DD
S214401840F08F0E46054641460130ACEB0604FFF7E6
S21440185005FE074688B1012CF0D0281987428CBF78
S2144018600121C11B1F2C8B460BD9234632463846D6
S214401870FFF7C2FE05B0BDE8F08F002005B0BDE81A
S214401880F08F03AA21463046FFF75CFE0399804658
S21440189002463144304600F02DF9002857D18146A3
S2144018A00546B246584608F1FF330093F3180193B5
S2144018B06619321A0021384400F0D6F80028DCD1E8
S2144018C0002EDAD0C845434638BF4B469C4212D914
S2144018D05A19B95C1AF803003A4488420AEB030ED8
S2144018E006D02CE01EF8010F12F8011F884226D1C0
S2144018F001339C42F6D1C845009940F28380009B54
S214401900EA18019BB85C1B783A4498427AD1019811
S21440191009F1FF3B06E010F801CD12F801EDF44561
S21440192003D119464B1E5B45F5D109F1010989459E
S21440193057D8039B30461D44A4EB0309B8E7C8F1CB
S214401940010215441D444FF000093046B0E7A4EBB1
S2144019500803434538BF434608F1FF390133039334
S21440196006EB090358460025BB469A4667193A1ABD
S2144019700021584400F078F800287FF47EAF002F0E
S2144019803FF47BAF444515D908EB05021BF802002F
S21440199016F808305A44984206EB0801434606D0EB
S2144019A023E011F801EF12F8010F86451DD10133EF
S2144019B09C42F6D1B9F1FF3F12D005EB09021BF865
S2144019C002109AF800305A44994214D1534605E022
S2144019D013F8010D12F8011D88420CD1B342F7D11D
S2144019E05F46781905B0BDE8F08FC8F1010215448E
S2144019F01D443846BAE7039B38461D44B6E70B7885
S214401A0013B97047414690E700207047024B13B128
S214401A10024800F005B87047000000002D1A40004C
S214401A20002301461A46184600F094B838B50A4CCA
S214401A300A4D641BA4100AD004F18043013B05EB19
S214401A408305013C55F804399847002CF9D1BDE888
S214401A50384000F0EDB900BF401E40003C1E40003C
S214401A60704700BF704700BF830770B4CDB23DD00B
S214401A70541E0AB30378AB421FD0431C05E014F152
S214401A80FF3419D30278AA4217D013F0030F184632
S214401A9003F10103F3D1032C11D84CB30378AB42C6
S214401AA00BD00444431C02E00278AA4205D09C4274
S214401AB0184603F10103F7D1002070BC70470902B5
S214401AC089B2294341EA0141036806464B40A3F1E7
S214401AD0013222EA030313F0803F00F1040003D1F1
S214401AE0043C032CF0D8D8E73046D7E71446D2E774
S214401AF02046E2E7032A70B422D940EA01039B0756
S214401B0011D003780C78A3421DD10A44013105E078
S214401B1010F8013F11F8014BA34214D19142F7D17E
S214401B20002070BC70470D6806680C46AE420346FF
S214401B3001F1040100F1040008D1043A032AF2D866
S214401B40002ADED1ECE7181B70BC704721461846C9
S214401B50D7E700BF2DE9F8432C4D0646286898463F
S214401B600F469146FFF77CFF294B1C68D4F8483156
S214401B70002B3ED05A681F2A1CDC02F1010E76B1BB
S214401B80012103EB8204C4F88890D3F88801914081
S214401B900843022EC3F88801C4F8088123D00232D5
S214401BA0C3F804E0286843F82270FFF75BFF002084
S214401BB0BDE8F883174B0BB34FF4C870AFF3008003
S214401BC00346D8B10020D4F848114FF0010E5860B3
S214401BD019600246C4F84831C3F88801C3F88C013E
S214401BE0002EDCD0CCE7D3F88C010143C3F88C112F
S214401BF0D5E704F5A673C4F84831BBE72868FFF775
S214401C0031FF4FF0FF30BDE8F88300BF30040020BE
S214401C10181E400000000000202020202020202009
S214401C20202020202020200008010000D7000000AF
S214401C306F6E00006F6666000A202020202020205D
S214401C40203C703E4C454420436F6E74726F6C3A35
S214401C503C2F703E0A20202020202020203C666F0B
S214401C60726D20616374696F6E3D226F6E223E0A0C
S214401C702020202020202020202020203C696E701C
S214401C80757420747970653D227375626D6974222F
S214401C902076616C75653D225475726E2074686559
S214401CA0204C4544206F6E2122202F3E0A202020C3
S214401CB020202020203C2F666F726D3E0A20202078
S214401CC020202020203C666F726D20616374696F0F
S214401CD06E3D226F6666223E0A202020202020206D
S214401CE02020202020202020203C696E7075742003
S214401CF0747970653D227375626D697422207661D1
S214401D006C75653D225475726E20746865204C452E
S214401D1044206F66662122202F3E0A202020202065
S214401D202020203C2F666F726D3E0A202020203CEB
S214401D302F626F64793E0A3C2F68746D6C3E0A00D1
S214401D403C21444F43545950452068746D6C3E3C8A
S214401D5068746D6C3E0A202020203C686561643EB5
S214401D600A20202020202020203C7469746C653E88
S214401D704531353520576562205365727665722049
S214401D8044656D6F20576562706167653C2F746966
S214401D90746C653E0A202020202020202020202011
S214401DA0203C2F686561643E0A202020203C626FFC
S214401DB064793E0A20202020202020203C68313EA6
S214401DC045313535205765622053657276657220F9
S214401DD044656D6F20576562706167653C2F68315A
S214401DE03E0A20202020202020203C703E43757252
S214401DF072656E74204D6963726F636F6E74726F36
S214401E006C6C6572204144433A203C2F703E0A2059
S214401E10202020202020200008000020F8B500BF09
S214401E20F8BC08BC9E4670470D1A4000F1004000C2
S214401E30F8B500BFF8BC08BC9E467047CD004000D1
S214401E40401D4000381C400000000000F402002006
S214401E505C030020C40300200000000000000000D7
S214401E60000000000000000000000000000000002D
S214401E70000000000000000000000000000000001D
S214401E80000000000000000000000000000000000D
S214401E9000000000000000000000000000000000FD
S214401EA000000000000000000000000000000000ED
S214401EB000000000000000000000000000000000DD
S214401EC000000000000000000000000000000000CD
S214401ED000000000000000000000000000000000BD
S214401EE000000000000000000000000000000000AD
S214401EF001000000000000000E33CDAB34126DE64A
S214401F00ECDE05000B0000000000000000000000B2
S214401F10000000000000000000000000000000007C
S214401F20000000000000000000000000000000006C
S214401F30000000000000000000000000000000005C
S214401F40000000000000000000000000000000004C
S20840227050040020B1
S804400000BB
