S01400006C6162365F737461727465722E7372656347
S214400000A80800203D014000390140003901400069
S214400010390140003901400039014000000000002D
S2144000200000000000000000000000003901400011
S214400030390140000000000039014000390140000D
S2144000403901400039014000390140003901400083
S21440005039014000390140003901400000000000ED
S21440006039014000390140000000000039014000DD
S21440007039014000000000003901400039014000CD
S2144000800000000000000000390140003901400037
S2144000903901400039014000390140003901400033
S2144000A03901400039014000000000000000000017
S2144000B0000000003901400039014000390140008D
S2144000C039014000390140003901400010B5054C67
S2144000D0237833B9044B13B10448AFF300800123AF
S2144000E0237010BD4004002000000000B4264000ED
S2144000F00C4B43B10C4810B50C49AFF300800C488C
S214400100036823B910BD0A48036833B97047094BE2
S214400110002BF7D0BDE810401847064B002BF5D013
S214400120184700BF00000000B426400044040020EA
S214400130B426400000000000FEE7000008B5184B5B
S214400140184A9A4210D0184B154A9A420CD2013B94
S2144001509B1A23F0030304331344124951F8040B4B
S21440016042F8040B9A42F9D1104B114A9A420AD2ED
S214400170013B9B1A23F0030304331344002142F847
S214400180041B9342FBD10B4B23F0604323F07F03C9
S214400190094A9360094B9847094B9847FEE700BFCA
S2144001A000000020B42640003C040020A4040020A8
S2144001B0400400200000400000ED00E0811B4000AD
S2144001C0D10A4000034B4FF400621A614FF480524C
S2144001D01A61704700040E4010B444112E4A2F4B4B
S2144001E0002C08BF1346424200F01F0002F01F02D8
S2144001F058BF5042052915D8DFE801F0030B1624F6
S21440020032401968012282401143196059690A43F5
S2144002105A611968012202FA00F0014319601A690E
S2144002201043186110BC70475968012202FA00F06A
S214400230014359601A6FC04302401A675A6F104014
S2144002405867EFE75968012202FA00F00143596007
S2144002501A6F02431A675A6F22EA00005867E1E7AE
S2144002605968012202FA00F0014359601A6F22EAE7
S21440027000021A675A6F10435867D3E7596801223D
S21440028002FA00F0014359601A6F02431A675A6F28
S21440029010435867C6E700BF000E0E4000100E40E1
S2144002A010B444110D4A0E4B002C08BF1346424270
S2144002B000F01F0002F01F0258BF504239B9596B78
S2144002C0012202FA00F00843586310BC7047196BCD
S2144002D0012202FA00F008431863F6E7000E0E40CB
S2144002E000100E40034B4FF400021A614FF080722C
S2144002F01A61704700040E4030B4134C84FB00343F
S214400300A4EBE073114D124C002B08BF2C460E4B4D
S21440031083FB0053A3EBE07303EB4303C31A9B0139
S214400320E018E55845F00105E550436861F30203DF
S2144003304360436843F400434360436862F34E338C
S214400340436030BC704700BF5655555500000140CD
S2144003500040014008B5044B984702220021084659
S214400360024B984708BD00BFE5024000F902400036
S214400370F8B505460F4616464FF40012134B1A6161
S214400380134B984702210B20124CA04702210C2009
S214400390A04702210D20A04702210E20A0470E4B69
S2144003A01A6842F001021A605A6842F001025A6026
S2144003B0EDB21A6B65F30F221A631A6B67F30002ED
S2144003C01A631A6B66F341021A63F8BD00040E40C6
S2144003D0C5014000D901400000800040064BDA6865
S2144003E060F30F02DA601A46136913F0010FFBD070
S2144003F0014B9868C0B270470080004070B5064612
S214400400000A044DA8470446F0B2A84740EA042034
S21440041000B270BDDD03400070B506460D464FF491
S21440042080720D4B1A610D4B9847022109200C4CE7
S214400430A04702210A20A0470A4B1A6842F0400211
S2144004401A601A6842F010021A605A6866F34B2225
S2144004505A601D6270BD00BF00040E40C5014000DA
S214400460D901400000060E40034A536913F0020FBC
S214400470FBD0014BD861704700060E40044B5B69C9
S21440048013F0010F1ABF024B98690020C0B27047A4
S21440049000060E4010B504464FF00052064B1A6157
S2144004A0064B9847064B5A6864F304125A605A68DB
S2144004B042F400025A6010BD00040E40C5014000E0
S2144004C00080034070B505460C46164609280AD8F3
S2144004D0DFE800F0052E33383D42474C51560521A3
S2144004E011202A4B98472A4B19690122AA400A43F1
S2144004F01A61986C690004FA01F202439A649A6C95
S214400500E44304F003048C4022EA04049C64D96C5F
S21440051006FA05F20A43DA64DA6C16F0010F0CBFED
S2144005200121002101FA05F522EA0505DD6470BDCA
S21440053005211220154B9847D5E705211320134B6C
S2144005409847D0E705211420104B9847CBE7052164
S21440055020200E4B9847C6E7052121200B4B984795
S214400560C1E705212220094B9847BCE705212320F7
S214400570064B9847B7E705211520044B9847B2E746
S21440058005211620014B9847ADE700BFD901400032
S214400590008003400000000070B5194A136843F01D
S2144005A0020313600122824015490B6B1342FCD0B4
S2144005B0134B143053F820005B68C3F3001340F627
S2144005C0FF7240F2FF34002B08BF14460D4DA8477B
S2144005D006462046A847014630460B4B98470B4BED
S2144005E0984705A3D3E90023094CA047094B9847F1
S2144005F070BD00BFAFF300806666666666660A40FA
S21440060000800340ED174000FD194000AD0F40004C
S21440061055104000D915400038B50446007828B13A
S214400620034DA84714F8010F0028FAD138BD00BF83
S2144006306904400008B5044B9847002814BF0120C1
S2144006404FF0FF3008BD00BFB51E400008B5044956
S214400650044B98470028CCBF01204FF0FF3008BD20
S2144006608C244000350640002DE9F04383B08DF8D9
S21440067007008DF806108DF805209DF807209DF898
S21440068006309DF805001B0143EA02331843264B0B
S214400690984780468946254C0022254BA047254D45
S2144006A019A3D3E90023A84706460F460022224B4B
S2144006B040464946A04716A3D3E90023A84716A3B9
S2144006C0D3E90023A0478046894632463B4630461B
S2144006D03946A04712A3D3E90023A04702460B465B
S2144006E040464946154CA04704460D46144B98478D
S2144006F0144B18600022144B20462946134CA04742
S21440070003B0BDE8F08300BF0000000000DC0A40F4
S2144007100000000000DC3A4000000000C0D0D94095
S2144007200000000000408FC0890F40005510400078
S2144007300000E03EED0C40000000103FF10C400091
S21440074089154000600400200000B440A912400013
S2144007502DE9704F88B08DF81F008DF81E108DF86B
S2144007601D209DF81F005FFA80F89DF81E509DF8EA
S2144007701DA06B4B18686B4B98476B4C00226B4B1D
S214400780A04700226A4B6B4EB047CDE9000154A308
S214400790D3E90023A047DDE90023A04700224FF01D
S2144007A07B53A047CDE902014FA3D3E90023DDE9FF
S2144007B00001A047604E02460B46DDE90201B04705
S2144007C000224FF07B53A04700224FF07C53A047B7
S2144007D000225A4BB04746A3D3E90023A047CDE9B1
S2144007E0020100220023564CA047002873D1EDB2E8
S2144007F05FFA8AFA4C4CDDE9002310461946A047BA
S2144008000022504BA04700224FF07C53A047CDE932
S214400810040100224C4BDDE90001A04702460B468E
S214400820B047DDE90423B0470022484BA047CDE956
S2144008300001280140EA083040EA0A00394B984750
S2144008403C4D02460B4600204149A84782468B460F
S21440085029A3D3E90023DDE90001B04700223D4B40
S214400860A04702460B4650465946A84724A3D3E91C
S2144008700023A047DDE90223374DA8478046894636
S21440088021A3D3E90023A04742464B46A047002277
S2144008904FF07853A04782468B461DA3D3E90023EA
S2144008A040464946A04700224FF07C53A0470246A8
S2144008B00B4650465946B04717A3D3E90023B047E6
S2144008C00022264BA04702460B4640464946B047C4
S2144008D008B0BDE8708F00200021F9E7AFF3008034
S2144008E00000000000A0A7400000000080DEC4C05A
S2144008F000000000A0CFE14000000000004EA641EE
S21440090000000000006AB840000000000070B740D9
S214400910000000000084CCC0000000000046CE402E
S21440092060040020890F4000551040000000E03F62
S2144009300040EF40ED0C4000F10C40000000F03F5E
S2144009402515400000001CC0008061400000D03FDC
S214400950000030410000303FA91240000000B03F88
S21440096010B504460A490B4B9847012806D00A4959
S2144009702046084B9847012805D010BD012112207B
S214400980064B9847F3E700211220044B9847F4E7BC
S214400990902440003506400098244000A1024000C4
S2144009A008B50120034B9847002211460420024B0D
S2144009B0984708BD95044000C504400008B501218D
S2144009C00820064B984701210820054B98470122EE
S2144009D011461420034B984708BD00BFD90140007C
S2144009E0A10240007103400038B5002108200C4C9D
S2144009F0A04747F22F400B4DA84747F21050A84754
S214400A0001210820A04700210820A047D020064DFD
S214400A10A8470020A84701210820A04738BD00BFAE
S214400A20A1024000FD034000DD03400030B583B026
S214400A30002108201B4DA847F7201B4CA04700204C
S214400A40A0478DF807000020A0478DF8060000203C
S214400A50A0478DF805000020A0478DF80400002030
S214400A60A0478DF803000020A0478DF80200012122
S214400A700820A8479DF804009DF803109DF8022022
S214400A800A4B98470A4CC4E902019DF807009DF8B6
S214400A9006109DF80520074B9847C4E9040103B0AB
S214400AA030BD00BFA1024000DD03400069064000A3
S214400AB0600400205107400008B50420024B9847C8
S214400AC0024B986108BD00BF9905400060040020B5
S214400AD02DE9F047A4B05D4A536843F400435360A1
S214400AE05B4B98475B4B98475B4B98475B4B9847AD
S214400AF05B4B98475B4B9847012112205A4B9847CF
S214400B0001211220594B98470D210420584B9847F5
S214400B10584C83E0202DA8BF0025636913F0010FD1
S214400B20FBD06E1CC04724AB1D4405F8200C354650
S214400B301CA8B847B0F1FF3FECD04F4B98474F4BFF
S214400B4098471CA84E4B98474E4D4F4FD5E902014B
S214400B50B8470A2203A9DFF884A1D047D5E90201A5
S214400B60D5E902890022494B494EB047CDE90001FC
S214400B7040464946B84700EB80004000454B984702
S214400B8002460B46DDE90001434EB047B8470A220D
S214400B9008A9D047D5E90401B8470A220DA9D0478D
S214400BA0A8693E4EB0470A2212A9D047A869AF6945
S214400BB03B493C4B984705463846B04700EB8000DB
S214400BC04000394B984701462846384B9847B0472F
S214400BD00A2217A9D047364E3068364DA847706867
S214400BE0A8473548A84703A8A847344F3846A847DB
S214400BF008A8A8473248A8473248A8470DA8A8479B
S214400C003148A8473148A84712A8A8473846A847B9
S214400C1017A8A8472E48A847B068A8471CAD2D4E31
S214400C200FCE0FC5336825F8023B1B0C2B700023F4
S214400C30CDF88330CDF88730CDF88B308DF88F30B7
S214400C400025254FDFF8988072E700BF50140E400D
S214400C50C5014000E502400055034000A1094000A0
S214400C60BD094000E9094000D9014000A10240000A
S214400C701904400000060E402D0A4000B90A400004
S214400C8061094000600400208915400000002440AF
S214400C9055104000890F4000ED0C4000351B4000C9
S214400CA00000204195184000ED1740008116400096
S214400CB00000002019064000A0244000BC2440004C
S214400CC0C0244000C4244000E0244000E424400007
S214400CD0FC2440006C2440004D064000011C4000AF
S214400CE07D04400081F0004102E000BF83F00043F5
S214400CF030B54FEA41044FEA430594EA050F08BF72
S214400D0090EA020F1FBF54EA000C55EA020C7FEA35
S214400D10645C7FEA655C00F0E2804FEA5454D4EBB2
S214400D205555B8BF6D420CDD2C4480EA020281EA7C
S214400D30030382EA000083EA010180EA020281EAB4
S214400D400303362D88BF30BD11F0004F4FEA013106
S214400D504FF4801C4CEA113102D0404261EB410115
S214400D6013F0004F4FEA03334CEA133302D052429B
S214400D7063EB430394EA050F00F0A780A4F1010457
S214400D80D5F1200E0DDB02FA0EFC22FA05F2801891
S214400D9041F1000103FA0EF2801843FA05F3594177
S214400DA00EE0A5F120050EF1200E012A03FA0EFCF6
S214400DB028BF4CF0020C43FA05F3C01851EBE37120
S214400DC001F0004507D54FF0000EDCF1000C7EEB3D
S214400DD000006EEB0101B1F5801F1BD3B1F5001F7B
S214400DE00CD349085FEA30004FEA3C0C04F101049A
S214400DF04FEA445212F5800F80F09A80BCF1004FC3
S214400E0008BF5FEA500C50F1000041EB045141EA44
S214400E10050130BD5FEA4C0C404141EB010111F445
S214400E20801FA4F10104E9D191F0000F04BF0146F0
S214400E300020B1FA81F308BF2033A3F10B03B3F1CE
S214400E4020020CDA0C3208DD02F1140CC2F10C025E
S214400E5001FA0CF021FA02F10CE002F11402D8BFBC
S214400E60C2F1200C01FA02F120FA0CFCDCBF41EA88
S214400E700C019040E41AA2BF01EB0451294330BD57
S214400E806FEA04041F3C1CDA0C340EDC04F1140434
S214400E90C4F1200220FA04F001FA02F340EA03000B
S214400EA021FA04F345EA030130BDC4F10C04C4F151
S214400EB0200220FA02F001FA04F340EA0300294631
S214400EC030BD21FA04F0294630BD94F0000F83F47B
S214400ED0801306BF81F480110134013D4EE77FEA5E
S214400EE0645C18BF7FEA655C29D094EA050F08BFAA
S214400EF090EA020F05D054EA000C04BF194610468B
S214400F0030BD91EA030F1EBF0021002030BD5FEACE
S214400F10545C05D14000494128BF41F0004130BDF6
S214400F2014F580043CBF01F5801130BD01F000454A
S214400F3045F0FE4141F470014FF0000030BD7FEABD
S214400F40645C1ABF194610467FEA655C1CBF0B46B8
S214400F50024650EA013406BF52EA033591EA030FCF
S214400F6041F4002130BD00BF90F0000F04BF0021C7
S214400F70704730B54FF4806404F132044FF00005FA
S214400F804FF0000150E700BF90F0000F04BF002173
S214400F90704730B54FF4806404F1320410F00045D9
S214400FA048BF40424FF000013EE700BF42004FEAD4
S214400FB0E2014FEA31014FEA02701FBF12F07F4351
S214400FC093F07F4F81F06051704792F0000F14BF4E
S214400FD093F07F4F704730B54FF4607401F0004592
S214400FE021F0004120E700BF50EA010208BF7047E9
S214400FF030B54FF000050AE050EA010208BF7047DE
S21440100030B511F0004502D5404261EB41014FF446
S214401010806404F132045FEA915C3FF4DCAE4FF04A
S21440102003025FEADC0C18BF03325FEADC0C18BF31
S214401030033202EBDC02C2F1200300FA03FC20FA82
S21440104002F001FA03FE40EA0E0021FA02F11444CF
S214401050C1E600BF70B54FF0FF0C4CF4E06C1CEAE4
S21440106011541DBF1CEA135594EA0C0F95EA0C0F59
S21440107000F0DEF82C4481EA030621EA4C5123EACC
S2144010804C5350EA013518BF52EA033541F48011FB
S21440109043F4801338D0A0FB02CE4FF00005E1FBAE
S2144010A002E506F00042E0FB03E54FF00006E1FBF8
S2144010B003569CF0000F18BF4EF0010EA4F1FF043B
S2144010C0B6F5007F64F5407404D25FEA4E0E6D417B
S2144010D046EB060642EAC62141EA55514FEAC5208C
S2144010E040EA5E504FEACE2EB4F1FD0C88BFBCF508
S2144010F0E06F1ED8BEF1004F08BF5FEA500E50F1B9
S214401100000041EB045170BD06F0004646EA01017E
S21440111040EA020081EA0301B4EB5C04C2BFD4EBB0
S2144011200C0541EA045170BD41F480114FF0000EA9
S214401130013C00F3AB8014F1360FDEBF002001F017
S214401140004170BDC4F10004203C35DA0C341BDC91
S21440115004F11404C4F1200500FA05F320FA04F063
S21440116001FA05F240EA020001F0004221F0004197
S21440117010EBD37021FA04F642EB06015EEA430E0A
S21440118008BF20EAD37070BDC4F10C04C4F120053A
S21440119000FA04F320FA05F001FA04F240EA0200ED
S2144011A001F0004110EBD37041F100015EEA430EBE
S2144011B008BF20EAD37070BDC4F1200500FA05F2DE
S2144011C04EEA020E20FA04F301FA05F243EA02035D
S2144011D021FA04F001F0004121FA04F220EA02006C
S2144011E000EBD3705EEA430E08BF20EAD37070BDB2
S2144011F094F0000F0FD101F00046400041EB010192
S21440120011F4801F08BF013CF7D041EA060195F073
S214401210000F18BF704703F00046520043EB03032D
S21440122013F4801F08BF013DF7D043EA060370471A
S21440123094EA0C0F0CEA135518BF95EA0C0F0CD025
S21440124050EA410618BF52EA4306D1D181EA03016B
S21440125001F000414FF0000070BD50EA410606BF65
S2144012601046194652EA430619D094EA0C0F02D1AA
S21440127050EA013613D195EA0C0F05D152EA0336EF
S2144012801CBF104619460AD181EA030101F000410D
S21440129041F0FE4141F470014FF0000070BD41F056
S2144012A0FE4141F4780170BD70B54FF0FF0C4CF430
S2144012B0E06C1CEA11541DBF1CEA135594EA0C0F4F
S2144012C095EA0C0F00F0A7F8A4EB050481EA030E9C
S2144012D052EA03354FEA013100F088804FEA033383
S2144012E04FF0805545EA131343EA12634FEA022251
S2144012F045EA111545EA10654FEA00260EF0004112
S2144013009D4208BF964244F1FD0404F5407402D263
S2144013105B084FEA3202B61A65EB03055B084FEAF4
S21440132032024FF480104FF4002CB6EB020E75EBF1
S214401330030E22BFB61A754640EA0C005B084FEA19
S2144013403202B6EB020E75EB030E22BFB61A754696
S21440135040EA5C005B084FEA3202B6EB020E75EBE1
S214401360030E22BFB61A754640EA9C005B084FEA59
S2144013703202B6EB020E75EB030E22BFB61A754666
S21440138040EADC0055EA060E18D04FEA051545EA55
S21440139016754FEA06164FEAC30343EA52734FEAFE
S2144013A0C2025FEA1C1CC0D111F4801F0BD141EA77
S2144013B000014FF000004FF0004CB6E711F4801FDC
S2144013C004BF01430020B4F1FD0C88BFBCF5E06FBC
S2144013D03FF6AFAEB5EB030C04BFB6EB020C5FEACC
S2144013E0500C50F1000041EB045170BD0EF0004E21
S2144013F04EEA113114EB5C04C2BFD4EB0C0541EA53
S214401400045170BD41F480114FF0000E013C90E64F
S21440141045EA060E8DE60CEA135594EA0C0F08BF13
S21440142095EA0C0F3FF43BAF94EA0C0F0AD150EA12
S21440143001347FF434AF95EA0C0F7FF425AF1046A5
S21440144019462CE795EA0C0F06D152EA03353FF4CD
S214401450FDAE1046194622E750EA410618BF52EA4A
S21440146043067FF4C5AE50EA41047FF40DAF52EA1E
S21440147043057FF4EBAE12E74FF0FF3C06E000BFBB
S2144014804FF0010C02E000BF4FF0010C4DF804CDC8
S2144014904FEA410C7FEA6C5C4FEA430C18BF7FEA88
S2144014A06C5C1BD001B050EA410C0CBF52EA430CB6
S2144014B091EA030F02BF90EA020F0020704710F136
S2144014C0000F91EA030F58BF994208BF90422CBFC5
S2144014D0D8176FEAE37040F0010070474FEA410CBE
S2144014E07FEA6C5C02D150EA013C07D14FEA430CDC
S2144014F07FEA6C5CD6D152EA033CD3D05DF8040B4D
S214401500704700BF8446104662468C46194663467E
S21440151000E000BF01B5FFF7B7FF002848BF10F155
S214401520000F01BD4DF808EDFFF7F4FF0CBF01209A
S21440153000205DF808FB00BF4DF808EDFFF7EAFF16
S21440154034BF012000205DF808FB00BF4DF808EDD1
S214401550FFF7E0FF94BF012000205DF808FB00BFC6
S2144015604DF808EDFFF7CEFF94BF012000205DF850
S21440157008FB00BF4DF808EDFFF7C4FF34BF01205D
S21440158000205DF808FB00BF4FEA410212F500124A
S21440159015D211D56FF47873B3EB625212D94FEA75
S2144015A0C12343F0004343EA505311F0004F23FA5F
S2144015B002F018BF404270474FF00000704750EAB4
S2144015C0013005D111F0004008BF6FF00040704771
S2144015D04FF00000704700BF4FEA4102B2F1E043CF
S2144015E024BFB3F5001CDCF1FE5C0DD901F0004CC5
S2144015F04FEAC0024CEA5070B2F1004F40EB830015
S21440160008BF20F00100704711F0804F21D113F140
S2144016103872BCBF01F00040704741F480114FEA79
S2144016205252C2F11802C2F1200C10FA0CF320FA02
S21440163002F018BF40F001004FEAC1234FEAD3231F
S21440164003FA0CFC40EA0C0023FA02F34FEA430389
S214401650CCE77FEA625307D150EA01331EBF4FF012
S214401660FE4040F44000704701F0004040F0FE402D
S21440167040F40000704700BF80F0004002E000BF2A
S21440168081F0004142001FBF5FEA410392EA030F28
S2144016907FEA226C7FEA236C6AD04FEA1262D2EB72
S2144016A01363C1BFD218414048404140B8BF5B4277
S2144016B0192B88BF704710F0004F40F4000020F010
S2144016C07F4018BF404211F0004F41F4000121F026
S2144016D07F4118BF494292EA030F3FD0A2F1010270
S2144016E041FA03FC10EB0C00C3F1200301FA03F1AE
S2144016F000F0004302D5494260EB4000B0F5000FD1
S21440170013D3B0F1807F06D340084FEA310102F18F
S2144017100102FE2A51D2B1F1004F40EBC25008BF41
S21440172020F0010040EA03007047490040EB00000B
S21440173010F4000FA2F10102EDD1B0FA80FCACF13A
S214401740080CB2EB0C0200FA0CF0AABF00EBC25039
S21440175052421843BCBFD0401843704792F0000F27
S21440176081F4000106BF80F400000132013BB5E77A
S2144017704FEA41037FEA226C18BF7FEA236C21D0F0
S21440178092EA030F04D092F0000F08BF0846704755
S21440179090EA010F1CBF0020704712F07F4F04D123
S2144017A0400028BF40F00040704712F100723CBF36
S2144017B000F50000704700F0004343F0FE4040F460
S2144017C0000070477FEA226216BF08467FEA23631E
S2144017D00146420206BF5FEA412390EA010F40F409
S2144017E0800070474FF0000304E000BF10F0004355
S2144017F048BF40425FEA000C08BF704743F096433C
S21440180001464FF000001CE050EA010208BF704756
S2144018104FF000030AE000BF50EA010208BF7047DD
S21440182011F0004302D5404261EB41015FEA010CF2
S21440183002BF84460146002043F0B64308BFA3F1EA
S2144018408053A3F50003BCFA8CF2083AA3EBC253CC
S21440185010DB01FA02FC634400FA02FCC2F12002EB
S214401860BCF1004F20FA02F243EB020008BF20F022
S2144018700100704702F1200201FA02FCC2F1200288
S21440188050EA4C0021FA02F243EB020008BF20EA7D
S214401890DC7070474FF0FF0C1CEAD0521EBF1CEAAB
S2144018A0D15392EA0C0F93EA0C0F6FD01A4480EA99
S2144018B0010C400218BF5FEA41211ED04FF0006382
S2144018C043EA501043EA5111A0FB01310CF00040AE
S2144018D0B1F5000F3EBF490041EAD3715B0040EAD4
S2144018E0010062F17F02FD2A1DD8B3F1004F40EBA4
S2144018F0C25008BF20F00100704790F0000F0CF077
S214401900004C08BF49024CEA502040EA51207F3A3A
S214401910C2BFD2F1FF0340EAC250704740F4000015
S2144019204FF00003013A5DDC12F1190FDCBF00F006
S21440193000407047C2F10002410021FA02F1C2F1B4
S214401940200200FA02FC5FEA310040F1000053EA50
S2144019504C0308BF20EADC70704792F0000F00F09E
S214401960004C02BF400010F4000F013AF9D040EAA4
S2144019700C0093F0000F01F0004C02BF490011F438
S214401980000F013BF9D041EA0C018FE70CEAD15336
S21440199092EA0C0F18BF93EA0C0F0AD030F0004CB6
S2144019A018BF31F0004CD8D180EA010000F000406A
S2144019B0704790F0000F17BF90F0004F084691F028
S2144019C0000F91F0004F14D092EA0C0F01D1420262
S2144019D00FD193EA0C0F03D14B0218BF084608D12B
S2144019E080EA010000F0004040F0FE4040F4000075
S2144019F0704740F0FE4040F4400070474FF0FF0C08
S214401A001CEAD0521EBF1CEAD15392EA0C0F93EA4E
S214401A100C0F69D0A2EB030280EA010C49024FEAA0
S214401A20402037D04FF0805343EA111143EA101359
S214401A300CF000408B4238BF5B0042F17D024FF411
S214401A40000C8B4224BF5B1A40EA0C00B3EB510FEC
S214401A5024BFA3EB510340EA5C00B3EB910F24BFD5
S214401A60A3EB910340EA9C00B3EBD10F24BFA3EB5A
S214401A70D10340EADC001B0118BF5FEA1C1CE0D122
S214401A80FD2A3FF650AF8B4240EBC25008BF20F0D5
S214401A90010070470CF0004C4CEA50207F32C2BF29
S214401AA0D2F1FF0340EAC250704740F400004FF0C6
S214401AB00003013A37E792F0000F00F0004C02BFF7
S214401AC0400010F4000F013AF9D040EA0C0093F0C1
S214401AD0000F01F0004C02BF490011F4000F013B1B
S214401AE0F9D041EA0C0195E70CEAD15392EA0C0F83
S214401AF008D142027FF47DAF93EA0C0F7FF470AFBB
S214401B00084676E793EA0C0F04D14B023FF44CAFFD
S214401B1008466EE730F0004C18BF31F0004CCAD192
S214401B2030F000427FF45CAF31F000437FF43CAFCE
S214401B305FE700BF4FEA4002B2F1FE4F0FD34FF0CF
S214401B409E03B3EB12620DD94FEA002343F00043E5
S214401B5010F0004F23FA02F018BF404270474FF093
S214401B600000704712F1610F01D1420205D110F01A
S214401B70004008BF6FF0004070474FF000007047CD
S214401B8070B50F4E0F4D761BB61018BF002405D00B
S214401B90013455F8043B9847A642F9D10A4E0B4DFE
S214401BA000F076FD761BB61018BF002406D0013430
S214401BB055F8043B9847A642F9D170BD70BD00BFAA
S214401BC09C2640009C264000A42640009C264000C0
S214401BD0931E222B10D80A2A10B506D000230C4696
S214401BE0194400F073FA204610BD0028F6DA2D237B
S214401BF040420B700123F2E700200870704700BF98
S214401C00FFF7E6BF2DE9F0414FF0010E0025744680
S214401C104FF0FF362B198B4200EB06070DD23F5D87
S214401C2010F803C0BC452DD21D460124A3EB060E7A
S214401C302B198B4200EB0607F1D34FF00108002525
S214401C4044464FF0FF37C2F800E02B19994200EBAC
S214401C50070E0ED91EF804E010F803C0F44518D954
S214401C601D460124A3EB07082B19994200EB070EEB
S214401C70F0D80137701C874224BF3846C2F800802F
S214401C80BDE8F0810CD04FF0010E2E4674467544E8
S214401C90C0E70BD04FF001082F4644464544D4E7F2
S214401CA0744512BF01341D460124B3E7444512BFB4
S214401CB001341D460124C8E72DE9F04FADF2144D1E
S214401CC0164605468B461046194603AA1C46FFF79D
S214401CD099FF814603AB0DF20C4243F8044F934202
S214401CE0FBD14CB1631E721E04A812F8011F40F8C7
S214401CF0213013F1FF33F8D203994A463144304637
S214401D0000F098FA00286FD109F1FF330093F318DA
S214401D108246019323468046544658469A4608EBE8
S214401D200A073A1A0021284400F03EFA002856D105
S214401D30002F54D0EB1913F8012C04AB53F8223083
S214401D404BB124B1039A934201D2AAEB02039844C2
S214401D5000243846E3E74C45234638BF4B460AF155
S214401D60FF3E734513D208EB0302A85C16F803C087
S214401D702A44844506EB030106D02CE011F801CF37
S214401D8012F8010F844526D101337345F6D34C45EE
S214401D90009980F08980009B08EB0302019BA85CB9
S214401DA01B782A4498427FD1019804F1FF3B06E015
S214401DB010F801CD12F801EDF44503D119464B1E3B
S214401DC09B45F5D101348C4270D8039C3846A044DC
S214401DD0AAEB0404A3E7C9F101029044B7E7002048
S214401DE00DF2144DBDE8F08FA4EB09034B4538BF08
S214401DF04B4609F1FF380133039306EB0803584678
S214401E004FF0000ACB4699460AEB04073A1A0021DF
S214401E10284400F0C9F90028E1D1002FDFD0EB19A3
S214401E2013F8012C04AB53F82230A3BB601E834545
S214401E3015D20AEB0B0215F802E016F80B302A44CE
S214401E409E4506EB0B015B4606D027E011F801CF16
S214401E5012F801EFF44521D101338342F6D3B8F1AD
S214401E60FF3F11D00AEB0802AB5C99F800102A44F9
S214401E7099420FD14B4605E013F8010D12F8011DAB
S214401E80884207D1B342F7D105EB0A000DF2144D54
S214401E90BDE8F08F039B9A443846B5E7CBF1010284
S214401EA092449A443846AFE749468BE705EB08002C
S214401EB096E700BF0278002A00F001812DE9F04F36
S214401EC091F8008085B04446B8F1000F16D086469B
S214401ED001F1010C012704E0634613F8014B64B19D
S214401EE09C46A24214BF002707F001071EF8012FA8
S214401EF0002AF1D19CF80030FBB917B105B0BDE817
S214401F00F08F0E46054641460130ACEB060400F025
S214401F10C1F9074688B1012CF0D0281987428CBFFA
S214401F200121C11B1F2C8B460BD92346324638460F
S214401F30FFF7C2FE05B0BDE8F08F002005B0BDE853
S214401F40F08F03AA21463046FFF75CFE0399804691
S214401F5002463144304600F06DF9002857D181469C
S214401F600546B246584608F1FF330093F3180193EE
S214401F706619321A0021384400F016F90028DCD1E0
S214401F80002EDAD0C845434638BF4B469C4212D94D
S214401F905A19B95C1AF803003A4488420AEB030E11
S214401FA006D02CE01EF8010F12F8011F884226D1F9
S214401FB001339C42F6D1C845009940F28380009B8D
S214401FC0EA18019BB85C1B783A4498427AD101984B
S214401FD009F1FF3B06E010F801CD12F801EDF4459B
S214401FE003D119464B1E5B45F5D109F101098945D8
S214401FF057D8039B30461D44A4EB0309B8E7C8F105
S214402000010215441D444FF000093046B0E7A4EBEA
S2144020100803434538BF434608F1FF39013303936D
S21440202006EB090358460025BB469A4667193A1AF6
S2144020300021584400F0B8F800287FF47EAF002F07
S2144020403FF47BAF444515D908EB05021BF8020068
S21440205016F808305A44984206EB0801434606D024
S21440206023E011F801EF12F8010F86451DD1013328
S2144020709C42F6D1B9F1FF3F12D005EB09021BF89E
S21440208002109AF800305A44994214D1534605E05B
S21440209013F8010D12F8011D88420CD1B342F7D156
S2144020A05F46781905B0BDE8F08FC8F101021544C7
S2144020B01D443846BAE7039B38461D44B6E70B78BE
S2144020C013B97047414690E700207047F0B58BB093
S2144020D06F461546DFF870E004460E46BEE80F0031
S2144020E00FC7BEE80F000FC79EE80300AB1E47F8B9
S2144020F0040B222B397022D8711E0846002300E0BC
S2144021001346B4FBF5F205FB12440AAF3C4414F800
S214402110287C144600F8017F5A1C002CF0D1B45499
S214402120F2184BB101344D781778181B844201F8E9
S214402130017F02F80159F5DB30460BB0F0BD0020B8
S21440214030700BB0F0BD00BF68264000024B13B1A4
S214402150024800F005B87047000000006D214000BE
S214402160002301461A46184600F008B938B50A4C0E
S2144021700A4D641BA4100AD004F18043013B05EBD2
S2144021808305013C55F804399847002CF9D1BDE841
S214402190384000F087BA00BFB4264000B026400062
S2144021A0704700BF704700BF830770B4CDB23DD0C4
S2144021B0541E0AB30378AB421FD0431C05E014F10B
S2144021C0FF3419D30278AA4217D013F0030F1846EB
S2144021D003F10103F3D1032C11D84CB30378AB427F
S2144021E00BD00444431C02E00278AA4205D09C422D
S2144021F0184603F10103F7D1002070BC704709026E
S21440220089B2294341EA0141036806464B40A3F19F
S214402210013222EA030313F0803F00F1040003D1A9
S214402220043C032CF0D8D8E73046D7E71446D2E72C
S2144022302046E2E7032A70B422D940EA01039B070E
S21440224011D003780C78A3421DD10A44013105E031
S21440225010F8013F11F8014BA34214D19142F7D137
S214402260002070BC70470D6806680C46AE420346B8
S21440227001F1040100F1040008D1043A032AF2D81F
S214402280002ADED1ECE7181B70BC70472146184682
S214402290D7E700BFC9B2002941D08207F0B467D063
S2144022A00378002B68D0994237D0431C04E013F8DB
S2144022B0010B90B381422FD09A071C46F7D1256870
S2144022C041EA012343EA034383EA0506A6F10130C7
S2144022D0A5F1013220EA060022EA0502024312F086
S2144022E0803F11D1204650F8046F83EA0607A7F1D5
S2144022F00135A6F1013225EA070522EA06022A43FD
S21440230012F0803FEFD00446207818B905E014F864
S214402310010F10B18142FAD12046F0BC70478307C6
S21440232024D00378002BF9D0431C03E00278013315
S214402330002AF3D099071846F8D11968A1F101325E
S21440234022EA010212F0803F08D153F8041FA1F19F
S214402350013222EA010212F0803FF6D01A7818467F
S21440236042B110F8013F002BFBD170470346E4E72B
S2144023700446A4E7184670471846CEE72DE9F843CA
S2144023802C4D0646286898460F469146FFF708FFAC
S214402390294B1C68D4F84831002B3ED05A681F2A77
S2144023A01CDC02F1010E76B1012103EB8204C4F875
S2144023B08890D3F8880191400843022EC3F88801DC
S2144023C0C4F8088123D00232C3F804E0286843F8F2
S2144023D02270FFF7E7FE0020BDE8F883174B0BB3EB
S2144023E04FF4C870AFF300800346D8B10020D4F84D
S2144023F048114FF0010E586019600246C4F8483143
S214402400C3F88801C3F88C01002EDCD0CCE7D3F8A3
S2144024108C010143C3F88C11D5E704F5A673C4F8C4
S2144024204831BBE72868FFF7BDFE4FF0FF30BDE8F8
S214402430F88300BF380400206426400000000000F7
S2144024400100000002000000040000000800000038
S2144024501000000020000000400000008000000047
S21440246000010000000200000004000020202020A0
S2144024702020202020202020202020202020000057
S2144024800000000000000000000000000A000000FD
S2144024906C65646F666600006C65646F6E00000075
S2144024A03C703E43757272656E742054656D7065FF
S2144024B07261747572653A3C2F703E002E000000C3
S2144024C0204300003C703E43757272656E74207007
S2144024D0726573737572653A3C2F703E000000005B
S2144024E0205061003C703E43757272656E74206C7D
S2144024F0696768743A3C2F703E00000020766F6C27
S214402500747300003C2F626F64793E3C2F68746D94
S2144025106C3E00003C703E4C454420436F6E7472E7
S2144025206F6C3A3C2F703E3C666F726D20616374F0
S214402530696F6E3D226C65646F6E223E3C696E70BC
S214402540757420747970653D227375626D69742266
S2144025502076616C75653D225475726E2074686590
S214402560204C4544206F6E2122202F3E3C2F666F24
S214402570726D3E203C666F726D20616374696F6E4B
S2144025803D226C65646F6666223E3C696E7075746B
S21440259020747970653D227375626D697422207669
S2144025A0616C75653D225475726E20746865204C6A
S2144025B04544206F66662122202F3E3C2F666F7270
S2144025C06D3E00003C21444F4354595045206874AA
S2144025D06D6C3E3C68746D6C3E3C686561643E3C28
S2144025E07469746C653E45313535205765622053B5
S2144025F065727665722044656D6F205765627061BE
S21440260067653C2F7469746C653E3C6D65746120EB
S214402610687474702D65717569763D227265667250
S2144026206573682220636F6E74656E743D22352232
S2144026303E3C2F686561643E3C626F64793E3C6810
S214402640313E453135352057656220536572766593
S214402650722044656D6F20576562706167653C2FD8
S21440266068313E0010000020303132333435363782
S21440267038396162636465666768696A6B6C6D6EFB
S2144026806F707172737475767778797A000000008F
S214402690F8B500BFF8BC08BC9E4670474D214000C8
S2144026A0F1004000F8B500BFF8BC08BC9E46704735
S2084026B0CD004000D4
S2144026B4C4254000142540000425400000000000C6
S2144026C400000000FC02002064030020CC0300202D
S2144026D400000000000000000000000000000000B1
S2144026E400000000000000000000000000000000A1
S2144026F40000000000000000000000000000000091
S2144027040000000000000000000000000000000080
S2144027140000000000000000000000000000000070
S2144027240000000000000000000000000000000060
S2144027340000000000000000000000000000000050
S2144027440000000000000000000000000000000040
S2144027540000000000000000000000000000000030
S214402764000000000000000001000000000000001F
S2144027740E33CDAB34126DE6ECDE05000B000000E4
S2144027840000000000000000000000000000000000
S21440279400000000000000000000000000000000F0
S2144027A400000000000000000000000000000000E0
S2144027B400000000000000000000000000000000D0
S210402AE4000000000000000080040020FD
S804400000BB
